:020000040800F2
:100000002804002001010008C9100008890D00081B
:10001000950E00086B070008751A00080000000024
:10002000000000000000000000000000791500083A
:100030007D09000800000000A9140008A1160008AE
:100040001B0100081B0100081B0100081B01000820
:100050001B0100081B0100081B0100081B01000810
:100060001B0100081B0100081B0100081B01000800
:100070001B0100081B0100081B0100081B010008F0
:100080001B0100081B0100081B0100081B010008E0
:100090001B0100081B0100081B0100081B010008D0
:1000A0001B0100081B0100081B0100081B010008C0
:1000B0001B0100081B0100081B0100081B010008B0
:1000C0001B0100081B0100081B0100081B010008A0
:1000D0001B010008B51900081B0100081B010008DE
:1000E0001B0100081B0100081B010008DFF80CD0F1
:1000F00000F00AFB00480047991A00082804002075
:100100000648804706480047FEE7FEE7FEE7FEE7B1
:10011000FEE7FEE7FEE7FEE7FEE7FEE71917000849
:10012000ED000008F0B480EA0102D40F4200B2EB07
:10013000410F02D20246084611464A0042D0C30D82
:10014000DDB2C1F3C752AD1A202D35DAC1F3160165
:1001500041F4000204B15242C5F1200602FA06F150
:100160002A411044B3EBD05F23D0C4B1012DA0EBE2
:10017000C35009DCF0BC4FF0004202EAC352DBB2CC
:1001800000F5000000F035BA400000F1807000EB8F
:10019000C350A0F1807040EAD170490009E04908DD
:1001A00041EAC071A0EBC35000F50000400800EB2D
:1001B000C350F0BC00F014BA6142012202EB4101CD
:1001C000001BF6E7F0BC704781F00041AAE780F021
:1001D0000040A7E780EA010210B502F000434000AA
:1001E00022D04A001FD0010E01EB1261C0F356006D
:1001F000C2F3560240F4000042F40002A0FB0220C9
:1002000000047F39140400D0401C50EA124001D48D
:100210004000491EC2B20C0604EBD010401C40083E
:10022000802A02D003E0002010BD20F00100002948
:1002300000DA0020184310BD30B480EA010202F059
:10024000004530F0004221F0004013D090B1C30DC2
:10025000D40DC2F31601C0F31600E41A41F40001F4
:1002600040F400027D34914201D3641C00E0490057
:10027000002C02DA30BC002070474FF4000000234D
:10028000914201D3891A034340084FEA4101F7D153
:1002900051B1914202D14FF0004105E002D24FF03E
:1002A000010101E06FF0010103EBC450284430BCB0
:1002B00000F096B92DE9FE4F81EA030404F00044F2
:1002C00021F0004100944FF0000B23F0004350EA6E
:1002D00001045ED052EA03045BD0C3F30A54C1F3B5
:1002E0000A552C44A4F2F3340194A0FB0254C1F348
:1002F000130141F48011C3F3130343F4801301FB92
:10030000024400FB034E840A970A44EA815447EAF8
:100310008357A4FB076802958D0A05FB07854FEA02
:10032000932C04FB0C542705029D4FEA065847EA1C
:100330001637B5EB08056EEB070C870E920E47EAF1
:10034000811742EA8312A7FB0201B6EB0B0164EBB3
:1003500000042B0D43EA0C335E1844EB1C50DA46C4
:100360005146E7FB0201C5F313044FEA0B3343EA9E
:1003700014534FEA0432019C43EA0603A4F10C042F
:100380000294009CCDE900B400F070F903B0BDE820
:10039000F08F00200146F9E72DE9F04D81EA0304D2
:1003A00004F0004B21F0004514464FF0000A23F002
:1003B000004150EA050220D054EA01021DD0C5F3E5
:1003C0000A570246C5F31303C1F31300C1F30A56DB
:1003D00040F4801543F48013A7EB0608101BD646A3
:1003E00008F2FD3873EB050002D308F1010801E0C3
:1003F00092185B41B8F1000F03DA00200146BDE816
:10040000F08D00204FF48011064684460EE0171B45
:1004100073EB050705D3121B63EB050306434CEA98
:10042000010C49084FEA300092185B4150EA01077D
:10043000EDD152EA030012D082EA040083EA0501FA
:10044000084305D0101BAB4106D20122002306E071
:1004500000224FF0004302E06FF0010253101AEB4C
:1004600006004CEB085110EB0A0041EB0B01BDE814
:10047000F04D00F0ECB80EB5C10F80EAE070084412
:10048000CA07002140F233438DE80E000A460B46AE
:1004900000F0ECF803B000BD0EB540F2334102911C
:1004A0000021CDE900110A460B4600F0DFF803B049
:1004B00000BD00F0004220F00040C10DC0F3160066
:1004C00040F400007F2901DA00207047962903DC00
:1004D000C1F19601C84001E096398840002AF4D065
:1004E0004042704720F00040C10DC0F3160040F4B8
:1004F00000007F2901DA00207047962903DCC1F152
:100500009601C840704796398840704700F0004215
:1005100030F000400AD0C10D01F56071C0F3160043
:1005200042EA0151C20840071143704700200146CA
:100530007047000030B5041E71F1000404DB4FF079
:100540000044404264EB0101141E73F1000405DB1A
:100550001C464FF00043524263EB04038B4208BF3A
:10056000824230BD30B5041E71F1000404DB4FF04F
:100570000044404264EB0101141E73F1000405DBEA
:100580001C464FF00043524263EB0403994208BFFC
:10059000904230BD01F0004330B421F0004150EAF8
:1005A000010206D00A0DA2F56072C1F31301002A00
:1005B00002DC30BC00207047440F44EAC104C10093
:1005C000E01830BC00EBC25000F00AB8002801DB94
:1005D000C0F10040002901DBC1F1004188427047B1
:1005E0000029A8BF7047401C490008BF20F0010047
:1005F000704710B4B0FA80FC00FA0CF050EA010425
:1006000004BF10BC704749B1CCF1200421FA04F4B6
:1006100011FA0CF118BF012121430843A3EB0C018F
:10062000CB1D4FEA00614FEA102042BF002010BCF2
:10063000704700EBC35010440029A4BF10BC7047A2
:10064000401C490008BF20F0010010BC704710B5E5
:10065000141E73F1000408DA401C41F100019218E5
:100660005B411A4301D120F0010010BD2DE9F04D8E
:1006700092469B4611B1B1FA81F202E0B0FA80F2E3
:100680002032904600F052F804460F4640EA0A0035
:1006900041EA0B0153465A46084313D0114653EA28
:1006A000010019D0C8F14002504600F04EF805464E
:1006B0000E4650465946424600F038F8084305D0E9
:1006C000012004E020463946BDE8F08D00200543B6
:1006D00046EAE0762C4337430A986305E40AA0EB28
:1006E00008000022FD0A44EA47540A3002D50020DF
:1006F0000146E9E7010510196941DDE908450019DE
:100700006941BDE8F04DA2E7064C074D06E0E06800
:1007100040F0010394E8070098471034AC42F6D348
:10072000FFF7E8FC2025000840250008202A04DB0C
:10073000203A00FA02F1002070479140C2F12003F4
:1007400020FA03F3194390407047202A04DB203A33
:1007500021FA02F00021704721FA02F3D040C2F1E1
:100760002002914008431946704700BFFEE7000091
:1007700008B50121092000F0EFFE0121094800F031
:10078000FBF910208DF80300ADF8000003208DF870
:1007900002006946044800F063F91021024800F0A5
:1007A0003EFA08BD00023000000C014010B51021D7
:1007B000014800F034FA10BD000C014010B51021C2
:1007C000014800F02AFA10BD000C014010B500F0FD
:1007D00063F8CC2000F082F8442000F07FF810BDD0
:1007E00010B50121082000F0B7FE00F0B5F8202177
:1007F000014800F014FA10BD000C014070B500254E
:1008000000241FE000F0A8F82021104800F005FAAD
:10081000022000F0C1F820210C4800F000FA00F09E
:1008200089F80A2000F0B8F82021084800F0ECF917
:1008300018B10120A0402843C5B2322000F0ACF826
:10084000601CC4B2082CDDDB284670BD000C0140E2
:100850002DE9F04700F020F8CC2000F03FF8BE2052
:1008600000F03CF8FFF7CAFF0446FFF7C7FF8146D8
:1008700044EA09200FFA80FA5046FFF7FCFD0746CC
:100880000022044BFFF716FD0546FFF783FEBDE887
:10089000F08700000000B03F10B5002400F05CF8C5
:1008A00020210D4800F0B9F94FF4FA7000F074F807
:1008B0002021094800F0B3F91E2000F06DF800F087
:1008C00039F82021044800F09FF904464FF4C8701D
:1008D00000F062F8204610BD000C014070B50446DF
:1008E00000F03AF800251FE02021114800F095F9AA
:1008F000022000F051F804F0010020B120210C4842
:1009000000F08DF903E02021094800F086F93C2031
:1009100000F042F82021064800F081F9022000F0A2
:100920003BF86410681CC5B2082DDDDB70BD00000B
:10093000000C014008B548208DF803002020ADF8D8
:10094000000003208DF802006946024800F088F894
:1009500008BD0000000C014008B510208DF8030010
:100960002020ADF8000003208DF8020069460248FF
:1009700000F076F808BD0000000C0140704710B58B
:10098000044603E04FF47A7000F006F8201EA4F14C
:100990000104F7D110BD0000064A1268064BB2FBF5
:1009A000F3F202FB00F100BF0A1EA1F10101FBD12D
:1009B000704700000000002000127A0010B50421EA
:1009C000154800F021F9012801D1052010BD0821AA
:1009D000114800F019F9012801D10420F6E74FF47D
:1009E00000610D4800F010F9012801D10320EDE766
:1009F0004FF48051084800F007F9012801D1022086
:100A0000E4E74FF40041054800F0FEF8012800D16A
:100A1000DCE70020DAE7000000080140000C01409C
:100A200008B501210C2000F097FD28208DF8030067
:100A300003208DF8020041F60C00ADF80000694675
:100A4000054800F00DF84FF40040ADF8000069468D
:100A5000024800F005F808BD00080140000C014004
:100A60002DE9F04102460025002600200023002445
:100A7000002791F803C00CF00F0591F803C00CF0AB
:100A8000100CBCF1000F03D091F802C04CEA050530
:100A900091F800C0BCF1000F31D0146800202BE0A9
:100AA0004FF0010C0CFA00F3B1F800C00CEA030699
:100AB0009E4220D183004FF00F0C0CFA03F7BC4389
:100AC00005FA03FC4CEA040491F803C0BCF1280FBA
:100AD00006D14FF0010C0CFA00FCC2F814C00AE079
:100AE00091F803C0BCF1480F05D14FF0010C0CFA8E
:100AF00000FCC2F810C0401C0828D1D31460B1F823
:100B000000C0BCF1FF0F34DD546800202EE000F17E
:100B1000080C4FF0010808FA0CF3B1F800C00CEA19
:100B200003069E4221D183004FF00F0C0CFA03F70D
:100B3000BC4305FA03FC4CEA040491F803C0BCF181
:100B4000280F05D100F1080C08FA0CF8C2F814803F
:100B500091F803C0BCF1480F07D100F1080C4FF029
:100B6000010808FA0CF8C2F81080401C0828CED3FF
:100B70005460BDE8F0810000F0B50A46002300246F
:100B80000021002500F00046B6F1004F02D11D4EB5
:100B9000F16901E01B4E7168C0F3034583B200F4B4
:100BA0004016B6F5401F08D121F07061154E7668E9
:100BB00026F07066134F7E6012E000F48016B6F5E2
:100BC000801F06D1032606FA05F4A14341F07061A7
:100BD00006E0460D360103FA06F6B14341F07061B6
:100BE00022B1460D360103FA06F6314300F0004605
:100BF000B6F1004F02D1034EF16101E0014E716088
:100C0000F0BD0000000001400246002093680B4048
:100C10000BB1012000E00020704741617047016185
:100C200070470AB1016100E0416170472DE9F0476A
:100C300000244FF480713048FFF7F1FF0F20FFF7D9
:100C4000ABFE4FF480712C48FFF7E7FF00BF0CE0CC
:100C5000601C84B20120FFF79FFE42F210708442B4
:100C600003DD40F2E730BDE8F0874FF40071224821
:100C7000FFF7CAFF0028EBD00021204800F046FE15
:100C800001211E4800F078FD0DE01C4800F08FFDAA
:100C90004CF25031884206DD0021184800F06CFD0E
:100CA00040F2E730DFE74FF400711348FFF7ACFF85
:100CB0000128EAD00021114800F05EFD0F4800F045
:100CC00076FD82465046FFF7E7FB074600220C4BB5
:100CD000FFF762FB0546FFF75DFC81460949484680
:100CE000FFF774FC02D240F2E730BCE74846FFF75A
:100CF000F9FB80B2B7E70000000C0140000800409B
:100D000000004D4000C079441FB50121082000F0CB
:100D100023FC0121042000F00FFC10208DF80F00AF
:100D20000001ADF80C0003208DF80E0003A9144853
:100D3000FFF796FE28208DF80F004FF40070ADF8F5
:100D40000C0003A90E48FFF78BFE4FF480710C488E
:100D5000FFF763FF0020ADF80600ADF802004FF684
:100D6000FF70ADF804004720ADF800006946054863
:100D700000F0CEFD0021034800F0FEFC1FBD000086
:100D8000000C01400008004000BFFEE710B54FF422
:100D900080510448FFF738FF012800D110BD002022
:100DA000FCE70000000C014010B54FF480410448FE
:100DB000FFF72AFF012800D110BD0020FCE700004A
:100DC000000C014008B50121082000F0C5FB4820B7
:100DD0008DF8030003208DF802004FF4E040ADF8D9
:100DE000000069460148FFF73BFE08BD000C0140CA
:100DF00010B54FF400410248FFF70FFF10BD00008F
:100E00000008014010B54FF400410248FFF707FF0A
:100E100010BD00000008014010B508210148FFF78F
:100E2000FCFE10BD000C014010B508210148FFF781
:100E3000F6FE10BD000C014008B501210D2000F0A8
:100E40008BFB01211048FFF797FE10208DF803005F
:100E500003208DF802004FF40040ADF80000694611
:100E60000A48FFF7FDFD0820ADF800006946084874
:100E7000FFF7F6FD4FF400410448FFF7CEFE0821CE
:100E80000348FFF7CAFE08BD000230000008014019
:100E9000000C014000BFFEE700B589B001210C2025
:100EA00000F05AFB0121022000F046FB10208DF8D3
:100EB000230003208DF822003020ADF8200008A97F
:100EC0001F48FFF7CDFD0320ADF8200008A91D48FD
:100ED000FFF7C6FD18208DF82300C020ADF82000D4
:100EE00008A91748FFF7BCFD40F2E730ADF818003D
:100EF0004720ADF814000020ADF81A00ADF8160038
:100F000005A9114800F004FD01A800F0F1FC6020E3
:100F1000ADF804000120ADF806000020ADF80C008B
:100F2000ADF80A0001A9084800F044FC01A90648F0
:100F300000F08CFC0121044800F01EFC09B000BD4B
:100F400000080140000C01400004004010B50446B8
:100F5000002C0CDB10210D48FFF761FE20210B480F
:100F6000FFF75BFEA1B20A4800F0CCFC0CE01021B8
:100F70000648FFF752FE20210448FFF750FE60426A
:100F800081B2034800F0BEFC10BD00000008014023
:100F90000004004010B50446002C0CDB01210D4874
:100FA000FFF73DFE02210B48FFF737FEA1B20A48CA
:100FB00000F0AAFC0CE001210648FFF72EFE0221FA
:100FC0000448FFF72CFE604281B2034800F09CFC0D
:100FD00010BD0000000C01400004004070B5054643
:100FE0000C46684205B22846FFF7B0FF2046FFF7DF
:100FF000D1FF70BD70B504460D46502654E0304810
:10100000B0F90000A0420DDA2D480088304400B24B
:101010002B4908800846B0F90000A04214DD0846BC
:10102000048011E02648B0F90000A0420CDD2448FD
:101030000088801B00B2224908800846B0F90000F1
:10104000A04201DA084604801E48B0F90000A84218
:101050000DDA1C480088304400B21A49088008465E
:10106000B0F90000A84214DD0846058011E01548DB
:10107000B0F90000A8420CDD12480088801B00B2C5
:10108000104908800846B0F90000A84201DA084675
:1010900005800C48B0F900100948B0F90000FFF7CE
:1010A0009DFF0520FFF76BFC0548B0F90000A0424A
:1010B000A5D10448B0F90000A842A0D170BD00003D
:1010C0002200002024000020704770B500240EE0AC
:1010D0000021204600F0F3F8002504E0002000F095
:1010E0007FF9681CC5B2802DF8DB601CC4B2082CE7
:1010F000EEDB70BD08B50121082000F02DFA1020AC
:101100008DF8030003208DF802004FF48060ADF8E5
:10111000000069460A48FFF7A3FC4FF40060ADF8F1
:10112000000069460648FFF79BFC01229102044833
:10113000FFF777FD0122D1020148FFF772FD08BDDC
:10114000000C014070B50546002419E080202041C4
:10115000284008B1012000E0002002464FF4006161
:101160000E48FFF75EFD012291020C48FFF759FD82
:1011700000224FF480610948FFF753FD601CC4B2A0
:10118000082CE3DB012291020448FFF74AFD00220C
:101190004FF480610148FFF744FD70BD000C014031
:1011A00010B50122D1020A48FFF73BFD012291024E
:1011B0000748FFF736FD00224FF400610448FFF7AF
:1011C00030FD00224FF480610148FFF72AFD10BD79
:1011D000000C014010B500224FF400610648FFF7F3
:1011E00020FD012291020448FFF71BFD0122D102DC
:1011F0000148FFF716FD10BD000C014070B500243A
:1012000006E0002500E06D1CB5F57A7FFBD3641C79
:10121000B4F57A7FF5D3FFF76DFFAE2000F0D0F87C
:10122000D52000F0CDF8802000F0CAF8A82000F00A
:10123000C7F83F2000F0C4F8D32000F0C1F8002028
:1012400000F0BEF8402000F0BBF8A12000F0B8F894
:10125000C82000F0B5F8DA2000F0B2F8122000F053
:10126000AFF8812000F0ACF8CF2000F0A9F8D92029
:1012700000F0A6F8F12000F0A3F8DB2000F0A0F8C1
:10128000302000F09DF8A42000F09AF8A62000F08D
:1012900097F88D2000F094F8142000F091F8AF201A
:1012A00000F08EF8FFF711FF70BD10B50246012067
:1012B00000E050430B1EA1F10101FAD110BD70B541
:1012C00005460C4645F0B00000F07AF8102141EADE
:1012D000141000F075F804F00F0000F071F870BD04
:1012E0002DE9F04105460E461746721ED206110E34
:1012F0006A1E5206100EFFF7E2FF002409E0A7F174
:101300002001134A02EB0111085D00F069F8601C2E
:10131000C4B2082CF3DB721ED206110E6A1E012322
:1013200003EB4202D0B2FFF7CAFF00240BE0A7F1A3
:101330002001074A02EB011204F10801505C00F0A1
:101340004FF8601CC4B2082CF1DBBDE8F08100004E
:10135000301F00082DE9F04780460E4617461D460F
:10136000002415E0281B411E0A20FFF79EFFB7FB53
:10137000F0F00A21B0FBF1F201FB120000F130099C
:101380003019C1B24A464046FFF7AAFF601CC4B2FA
:10139000AC42E7DBBDE8F0872DE9F04107460E4699
:1013A0001546002407E02A5D3019C1B23846FFF720
:1013B00097FF601CC4B2285D0028F4D1BDE8F0811D
:1013C00010B50446FFF7ECFE7820FFF7BBFE0020C7
:1013D000FFF7B8FE2046FFF7B5FEFFF7FBFE10BD96
:1013E00010B50446FFF7DCFE7820FFF7ABFE402087
:1013F000FFF7A8FE2046FFF7A5FEFFF7EBFE10BDA6
:1014000000B589B0012140F6040000F0A5F81820CD
:101410008DF823004FF48070ADF8200003208DF884
:10142000220008A91948FFF71BFB0020ADF81A009D
:10143000ADF8160044F61F60ADF818004720ADF86F
:10144000140000208DF81C0005A9114800F060FA76
:1014500001A800F04DFA6020ADF804000020ADF8BE
:101460000C000120ADF806000020ADF80A0001A92B
:10147000074800F09FF90121054800F089F9012192
:10148000034800F079F909B000BD000000080140F0
:10149000002C014010B504462146024800F032FA03
:1014A00010BD0000002C01407047000010B5094835
:1014B000007800B910BD4FF400510748FFF7ADFBAD
:1014C00040F2DC50FFF75BFA00200249087000BFD1
:1014D000F0E700001E0000200010014008B50121C7
:1014E000102000F039F810208DF803004002ADF80C
:1014F000000003208DF8020069460648FFF7B0FAA5
:101500004FF400510348FFF788FB002002490870A0
:1015100008BD0000001001401E00002010B54FF46F
:1015200000510348FFF77BFB01200249087010BD02
:10153000001001401E00002029B1064AD269024372
:10154000044BDA6104E0034AD2698243014BDA6159
:10155000704700000010024029B1064A9269024318
:10156000044B9A6104E0034A92698243014B9A61F9
:101570007047000000100240704700002DE9F04164
:1015800004460A492046FEF757FE80460849FEF702
:1015900021FE07460749FEF7C5FD0646FEF7A2FFF6
:1015A00085B22846FFF776FFBDE8F081000034439E
:1015B0000000FA440000FA4310B500F001F810BD35
:1015C0000CB50020019000903348006840F4803052
:1015D0003149086000BF3048006800F400300090D6
:1015E0000198401C0190009818B90198B0F5A06FBF
:1015F000F1D12948006800F4003010B101200090BA
:1016000001E0002000900098012843D123480068A1
:1016100040F01000214908600846006820F00300EF
:1016200008600846006840F0020008601A484068F8
:10163000194948600846406848600846406840F4D8
:10164000806048600846406820F47C104860084686
:10165000406840F4E81048600846006840F0807038
:10166000086000BF0C48006800F000700028F9D046
:101670000948406820F00300074948600846406870
:1016800040F00200486000BF0348406800F00C00D2
:101690000828F9D10CBD00000010024000200240D3
:1016A00017480088401C1649088016480088401CCE
:1016B0001449088014480088401C134908801048C9
:1016C00000880A2805DB00200D49088001200F4909
:1016D00008700C480088642805DB00200949088050
:1016E00001200B49087008480088B0F5FA6F05DB47
:1016F0000020054908800120064908707047000055
:10170000180000201A0000201C00002014000020F7
:10171000150000201600002010B51348006840F0A6
:1017200001001149086008464068104908400E4908
:101730004860084600680E4908400B4908600846A2
:10174000006820F4802008600846406820F4FE000D
:1017500048604FF41F008860FFF72EFF4FF00060D5
:101760000449086010BD0000001002400000FFF8AE
:10177000FFFFF6FE08ED00E021B1028842F0010211
:10178000028004E002884FF6FE731A400280704720
:1017900031B1B0F8442042F40042A0F8442005E002
:1017A000B0F84420C2F30E02A0F84420704701466E
:1017B000888C704770B5002400220023058C4FF6FA
:1017C000FE7635400584028C8388048B4FF68F7536
:1017D0002C40B51E2C400D882C43751E2A400D89C7
:1017E0002A434D882A43144DA8420BD0134DA842DA
:1017F00008D0134DA84205D0124DA84202D0124D78
:10180000A84213D14FF6F7752A404D892A434FF667
:10181000FB752A408D882A434FF6FF652B404FF613
:10182000FF552B408D892B43CD892B438380048327
:10183000CD888586028470BD002C014000340140B3
:1018400000400140004401400048014070B50024C0
:1018500000220023058C4FF6EF7635400584028C7C
:101860008388048B48F6FF752C404FF6FF452C40CB
:101870000D884FF6FF7606EA05252C434FF6DF75F7
:101880002A400D8906EA05152A434D8806EA051502
:101890002A43154DA84202D0144DA8421DD14FF63F
:1018A0007F752A404D894FF6FF7606EA05152A43D3
:1018B0004FF6BF752A408D8806EA05152A434FF674
:1018C000FF352B404FF2FF752B408D8906EA8505C9
:1018D0002B43CD8906EA85052B4383800483CD887D
:1018E0000587028470BD0000002C014000340140D7
:1018F0000021018041808180C180018141818181FD
:10190000C181704781867047018770478184704725
:10191000002202881D4B98420ED01D4B98420BD0DE
:10192000B0F1804F08D01B4B984205D01A4B98421B
:1019300002D01A4B984204D14FF68F731A404B884D
:101940001A43174B984207D0164B984204D04FF6D3
:10195000FF431A40CB881A4302808B8883850B880B
:1019600003850A4B98420BD0094B984208D00E4B86
:10197000984205D00D4B984202D00D4B984201D1B0
:101980000B7A03860123838270470000002C0140FC
:10199000003401400004004000080040000C0040FA
:1019A000001000400014004000400140004401408D
:1019B0000048014010B540F225510D4800F02BF8C9
:1019C000A8B10B4800F051F8C4B2462C07D0422C05
:1019D00005D04C2C03D0522C01D0532C01D10548FA
:1019E000047040F22551024800F006F800BF10BD17
:1019F000003801401F00002010B50022002340F6EF
:101A00006A14A14200D100BF0A1201249440A3B27B
:101A1000DC43048010BD70B502460024002300257D
:101A2000002040F66A16B14200D100BFC1F3421552
:101A300001F01F03012606FA03F3012D02D1968956
:101A4000334006E0022D02D1168A334001E0968A27
:101A500033400C12012606FA04F41688344013B100
:101A60000CB1012000E0002070BD01468888C0F361
:101A70000800704700BFFEE702E008C8121F08C157
:101A8000002AFAD170477047002001E001C1121FFF
:101A9000002AFBD17047000086B0FFF7AFFBFFF7CD
:101AA000FBF9FFF7C9F9FFF72FF9FFF7A9FCFEF7DC
:101AB000B7FFFFF713FDFEF75BFEFEF791FEFFF7A2
:101AC00081F9ED48FFF75AFDFEF770FEFFF7EEFCD7
:101AD000EAA201210846FFF75FFCECA201210420E5
:101AE000FFF75AFC4FF47A70FEF749FFEBA2012191
:101AF0000420FFF751FC4FF47A70FEF740FFEBA291
:101B000001210420FFF748FC4FF47A70FEF737FFFD
:101B1000FFF7DBFAE9A201210320FFF73DFC0025D6
:101B200000260027A846A946AB460020059082461D
:101B30000490A0E1049830B9FEF748FE012004901B
:101B40004FF0000A4EE0BAF5487F4BDBFEF780FE0F
:101B500003900398FEF7DAFC0022DC4BCDE900018C
:101B6000FEF700FD3BD20398FEF7D0FC0022D84BD5
:101B7000CDE90001FEF7DEFC31D20398FEF7C6FC8A
:101B80000022D44BCDE90001FEF7D4FC27D0039806
:101B9000FEF78FFC0290D0490398FEF71BFB0090E4
:101BA000FEF787FC0A2190FBF1F201FB1200019085
:101BB000022307210320029AFFF7CCFB2E220921E2
:101BC0000320FFF78DFB01230A210320019AFFF771
:101BD000C1FBC2A20B210320FFF7DEFB00BF0020E8
:101BE000049000BFFEF7EAFE044634B10120BC4970
:101BF00008704FF0000B059412E0B94800780128F6
:101C00000BD10BF101001FFA80FBBBF1320F07DD96
:101C10000020B3490870834602E00020B0490870F4
:101C2000AF48007800287DD1FEF7C0FDFFF73EFCED
:101C3000FFF7E8F8FFF7F0F8AAA201210846FFF73E
:101C4000ABFB8D48FFF79AFC1420FEF798FEFEF7D9
:101C5000EDFF0546FFF79AF88046FFF7A5F88146A5
:101C6000A4A201210220FFF797FB03232A460721A4
:101C70000220FFF76FFB2D2D0BDDB8F1000F08D10F
:101C8000B9F1000F05D14FF4FA710846FFF7B2F928
:101C9000E9E01E2D0DDD2D2D0BDCB8F1000F08D174
:101CA000B9F1000F05D14FF496710846FFF7A2F97C
:101CB000D9E000210846FFF79DF9C820FEF75FFE36
:101CC0009048FFF75BFC4FF4C870FEF758FEFEF734
:101CD000ADFF07468C48FFF751FC4FF4C870FEF784
:101CE0004EFEFEF7A3FF06466348FFF747FC4FF49E
:101CF000C870FEF744FEB9F1010F14D1B74212DCEF
:101D000082490846FFF776F94FF4C870FEF737FEB0
:101D100040F226214842FFF76DF94FF4AF70FEF70D
:101D20002EFE44E048E0B8F1010F13D1B74211DBB9
:101D300076490846FFF75EF94FF4C870FEF71FFEBC
:101D40007249C8394842FFF755F94FF4AF70FEF7B2
:101D500016FE2CE0B74202DAB8F1010F11D16B493F
:101D60000846FFF747F94FF4C870FEF708FE6749C9
:101D7000C8394842FFF73EF94FF4AF70FEF7FFFD58
:101D800015E0B74202DBB9F1010F10D15F490846F7
:101D9000FFF730F94FF4C870FEF7F1FD40F226214D
:101DA0004842FFF727F94FF4AF70FEF7E8FD0AF657
:101DB00066001FFA80FA56E049480078012852D19F
:101DC000FFF716F8FFF730F8FEF7F8FC50A20121F4
:101DD0000846FFF7E1FA52A201210220FFF7DCFAE0
:101DE000012306210220059AFFF7B4FA012C07D13E
:101DF0004FF4FA714842FFF7FDF8FFF757FB2BE06D
:101E0000022C07D14FF496714842FFF7F3F8FFF721
:101E10004DFB21E0052C07D13C4996394842FFF79C
:101E2000E9F8FFF743FB17E0042C07D137493231BB
:101E30004842FFF7DFF8FFF739FB0DE0032C06D12E
:101E400000210846FFF7D6F8FFF768FB04E01CB94D
:101E500000210846FFF7CEF83220FEF790FD0AF188
:101E600032001FFA80FA1420FEF789FD0AF11400EF
:101E70001FFA80FA00BF5DE60000B4425379737424
:101E8000656D2052656164792E2E2E005374617247
:101E900074696E6720696E20337300005374617239
:101EA00074696E6720696E2032730000537461722A
:101EB00074696E6720696E203173000054656D701F
:101EC0003A202D2D2E2D204300000000000014404C
:101ED00000005440004055400000204120430000D5
:101EE000200000204D6F64653A20506174726F6C61
:101EF00020202000446973743A2020202020636D44
:101F0000000000000000A04100002043A2FEFFFFEF
:101F10004D6F64653A20464952452120202020001B
:101F2000506F733A2020457874696E672E2E2E000C
:101F300000000000000000000000000000000000A1
:101F4000000000F800000000000000333000000036
:101F500000100C06100C060000000000000000003D
:101F600040C07840C0784000043F04043F040400AF
:101F7000007088FC08300000001820FF211E0000BF
:101F8000F008F000E018000000211C031E211E00D4
:101F900000F00888700000001E212324192721105A
:101FA00010160E00000000000000000000000000FD
:101FB000000000E0180402000000000718204000A4
:101FC00000020418E0000000004020180700000094
:101FD000404080F0804040000202010F01020200F8
:101FE000000000F0000000000101011F01010100DC
:101FF000000000000000000080B070000000000041
:1020000000000000000000000001010101010101C9
:102010000000000000000000003030000000000060
:102020000000000080601804006018060100000035
:1020300000E010080810E000000F102020100F0032
:10204000001010F8000000000020203F20200000B9
:102050000070080808887000003028242221300011
:1020600000300888884830000018202020110E0019
:102070000000C02010F8000000070424243F2400C2
:1020800000F80888880808000019212020110E0097
:1020900000E0108888180000000F112020110E00A9
:1020A00000380808C83808000000003F00000000A1
:1020B0000070880808887000001C222121221C0062
:1020C00000E010080810E0000000312222110F008B
:1020D000000000C0C0000000000000303000000020
:1020E0000000008000000000000080600000000090
:1020F00000008040201008000001020408102000A9
:1021000040404040404040000404040404040400F3
:102110000008102040800000002010080402010088
:10212000007048080808F000000000303601000088
:10213000C030C828E810E0000718272423140B003B
:102140000000C038E0000000203C230202273820B5
:1021500008F8888888700000203F202020110E0099
:10216000C030080808083800071820202010080090
:1021700008F808080810E000203F202020100F0079
:1021800008F88888E8081000203F20202320180045
:1021900008F88888E8081000203F200003000000AD
:1021A000C03008080838000007182020221E02004E
:1021B00008F808000008F808203F210101213F200D
:1021C000000808F8080800000020203F2020000038
:1021D00000000808F8080800C08080807F00000028
:1021E00008F888C028180800203F20012638200061
:1021F00008F8080000000000203F202020203000C8
:1022000008F8F800F8F80800203F003F003F2000E1
:1022100008F830C00008F808203F200007183F00E9
:10222000E01008080810E0000F10202020100F0018
:1022300008F808080808F000203F2101010100000B
:10224000E01008080810E0000F18242438504F0050
:1022500008F8888888887000203F2000030C302010
:1022600000708808080838000038202121221C004E
:10227000180808F8080818000000203F2000000097
:1022800008F808000008F808001F202020201F0080
:102290000878880000C83808000007380E010000E0
:1022A000F80800F80008F800033C0700073C0300AA
:1022B000081868808068180820302C03032C302010
:1022C0000838C800C83808000000203F200000007F
:1022D00010080808C83808002038262120201800D7
:1022E000000000FE020202000000007F40404000AB
:1022F000000C30C000000000000000010638C000E3
:1023000000020202FE000000004040407F0000008A
:1023100000000402020204000000000000000000AF
:1023200000000000000000008080808080808080AD
:102330000002020400000000000000000000000095
:1023400000008080808000000019242222223F208B
:1023500008F8008080000000003F112020110E00CE
:102360000000008080800000000E1120202011005D
:10237000000000808088F800000E112020103F200F
:102380000000808080800000001F22222222130093
:10239000008080F0888888180020203F20200000DE
:1023A0000000808080808000006B94949493600093
:1023B00008F8008080800000203F210000203F209E
:1023C00000809898000000000020203F202000009E
:1023D000000000809898000000C08080807F00008E
:1023E00008F8000080808000203F24022D3020006B
:1023F000000808F8000000000020203F2020000016
:102400008080808080808000203F20003F20003F2F
:102410008080008080800000203F210000203F203D
:102420000000808080800000001F202020201F00EE
:10243000808000808000000080FFA12020110E001D
:102440000000008080808000000E112020A0FF800E
:10245000808080008080800020203F2120000100BB
:102460000000808080808000003324242424190010
:10247000008080E0808000000000001F202000001D
:102480008080000000808000001F202020103F205E
:10249000808080000080808000010E3008060100EE
:1024A00080800080008080800F300C030C300F0093
:1024B00000808000808080000020312E0E312000BE
:1024C000808080000080808080818E7018060100EE
:1024D00000808080808080000021302C222130000C
:1024E00000000000807C020200000000003F40402D
:1024F00000000000FF00000000000000FF000000DE
:102500000002027C800000000040403F000000000C
:1025100000060101020204040000000000000000A7
:10252000402500080000002028000000781A00085C
:10253000682500082800002000040000881A000810
:1025400000A24A0400000000000000000102030491
:10255000060708090000000000000000000000005D
:08256000000000000000000073
:0400000508000101ED
:00000001FF
