:020000040800F2
:100000002804002001010008F10B00081509000870
:10001000BD090008AB05000811150008000000002C
:1000200000000000000000000000000015100008A3
:10003000AF05000800000000D10F00083D110008C6
:100040001B0100081B0100081B0100081B01000820
:100050001B0100081B0100081B0100081B01000810
:100060001B0100081B0100081B0100081B01000800
:100070001B0100081B0100081B0100081B010008F0
:100080001B0100081B0100081B0100081B010008E0
:100090001B0100081B0100081B0100081B010008D0
:1000A0001B0100081B0100081B0100081B010008C0
:1000B0001B0100081B0100081B0100081B010008B0
:1000C0001B0100081B0100081B0100081B010008A0
:1000D0001B010008511400081B0100081B01000847
:1000E0001B0100081B0100081B010008DFF80CD0F1
:1000F00000F02AFA004800473515000828040020BF
:100100000648804706480047FEE7FEE7FEE7FEE7B1
:10011000FEE7FEE7FEE7FEE7FEE7FEE7B5110008B3
:10012000ED000008F0B480EA0102D40F4200B2EB07
:10013000410F02D20246084611464A0042D0C30D82
:10014000DDB2C1F3C752AD1A202D35DAC1F3160165
:1001500041F4000204B15242C5F1200602FA06F150
:100160002A411044B3EBD05F23D0C4B1012DA0EBE2
:10017000C35009DCF0BC4FF0004202EAC352DBB2CC
:1001800000F5000000F055B9400000F1807000EB70
:10019000C350A0F1807040EAD170490009E04908DD
:1001A00041EAC071A0EBC35000F50000400800EB2D
:1001B000C350F0BC00F034B96142012202EB4101AE
:1001C000001BF6E7F0BC704781F00041AAE780F021
:1001D0000040A7E780EA010210B502F000434000AA
:1001E00022D04A001FD0010E01EB1261C0F356006D
:1001F000C2F3560240F4000042F40002A0FB0220C9
:1002000000047F39140400D0401C50EA124001D48D
:100210004000491EC2B20C0604EBD010401C40083E
:10022000802A02D003E0002010BD20F00100002948
:1002300000DA0020184310BD30B480EA010202F059
:10024000004530F0004221F0004013D090B1C30DC2
:10025000D40DC2F31601C0F31600E41A41F40001F4
:1002600040F400027D34914201D3641C00E0490057
:10027000002C02DA30BC002070474FF4000000234D
:10028000914201D3891A034340084FEA4101F7D153
:1002900051B1914202D14FF0004105E002D24FF03E
:1002A000010101E06FF0010103EBC450284430BCB0
:1002B00000F0B6B82DE9F04D81EA030404F0004BDC
:1002C00021F0004514464FF0000A23F0004150EAA7
:1002D000050220D054EA01021DD0C5F30A57024698
:1002E000C5F31303C1F31300C1F30A5640F480159C
:1002F00043F48013A7EB0608101BD64608F2FD381E
:1003000073EB050002D308F1010801E092185B418C
:10031000B8F1000F03DA00200146BDE8F08D00209F
:100320004FF48011064684460EE0171B73EB050759
:1003300005D3121B63EB050306434CEA010C490885
:100340004FEA300092185B4150EA0107EDD152EAC2
:10035000030012D082EA040083EA0501084305D0B5
:10036000101BAB4106D20122002306E000224FF011
:10037000004302E06FF0010253101AEB06004CEB51
:10038000085110EB0A0041EB0B01BDE8F04D00F005
:100390007EB80EB540F2334102910021CDE9001143
:1003A0000A460B4600F082F803B000BD20F0004082
:1003B000C10DC0F3160040F400007F2901DA0020CF
:1003C0007047962903DCC1F19601C8407047963901
:1003D0008840704701F0004330B421F0004150EAFA
:1003E000010206D00A0DA2F56072C1F31301002AC2
:1003F00002DC30BC00207047440F44EAC104C10055
:10040000E01830BC00EBC25000F00AB8002801DB55
:10041000C0F10040002901DBC1F100418842704772
:100420000029A8BF7047401C490008BF20F0010008
:10043000704710B4B0FA80FC00FA0CF050EA0104E6
:1004400004BF10BC704749B1CCF1200421FA04F478
:1004500011FA0CF118BF012121430843A3EB0C0151
:10046000CB1D4FEA00614FEA102042BF002010BCB4
:10047000704700EBC35010440029A4BF10BC704764
:10048000401C490008BF20F0010010BC704710B5A7
:10049000141E73F1000408DA401C41F100019218A7
:1004A0005B411A4301D120F0010010BD2DE9F04D50
:1004B00092469B4611B1B1FA81F202E0B0FA80F2A5
:1004C0002032904600F052F804460F4640EA0A00F7
:1004D00041EA0B0153465A46084313D0114653EAEA
:1004E000010019D0C8F14002504600F04EF8054610
:1004F0000E4650465946424600F038F8084305D0AB
:10050000012004E020463946BDE8F08D0020054377
:1005100046EAE0762C4337430A986305E40AA0EBE9
:1005200008000022FD0A44EA47540A3002D50020A0
:100530000146E9E7010510196941DDE9084500199F
:100540006941BDE8F04DA2E7064C074D06E0E068C2
:1005500040F0010394E8070098471034AC42F6D30A
:10056000FFF7C8FDF41C0008141D0008202A04DB56
:10057000203A00FA02F1002070479140C2F12003B6
:1005800020FA03F3194390407047202A04DB203AF5
:1005900021FA02F00021704721FA02F3D040C2F1A3
:1005A0002002914008431946704700BFFEE770479C
:1005B00010B5044603E04FF47A7000F005F8201EF1
:1005C000A4F10104F7D110BD064A1268064BB2FB34
:1005D000F3F202FB00F100BF0A1EA1F10101FBD101
:1005E000704700000000002000127A002DE9F04161
:1005F000024600250026002000230024002791F851
:1006000003C00CF00F0591F803C00CF0100CBCF106
:10061000000F03D091F802C04CEA050591F800C024
:10062000BCF1000F31D0146800202BE04FF0010C1A
:100630000CFA00F3B1F800C00CEA03069E4220D188
:1006400083004FF00F0C0CFA03F7BC4305FA03FCD0
:100650004CEA040491F803C0BCF1280F06D14FF016
:10066000010C0CFA00FCC2F814C00AE091F803C0B7
:10067000BCF1480F05D14FF0010C0CFA00FCC2F898
:1006800010C0401C0828D1D31460B1F800C0BCF1E0
:10069000FF0F34DD546800202EE000F1080C4FF00D
:1006A000010808FA0CF3B1F800C00CEA03069E42F8
:1006B00021D183004FF00F0C0CFA03F7BC4305FA6D
:1006C00003FC4CEA040491F803C0BCF1280F05D1E7
:1006D00000F1080C08FA0CF8C2F8148091F803C075
:1006E000BCF1480F07D100F1080C4FF0010808FADF
:1006F0000CF8C2F81080401C0828CED35460BDE826
:10070000F0810000F0B50A460023002400210025F6
:1007100000F00046B6F1004F02D11D4EF16901E034
:100720001B4E7168C0F3034583B200F44016B6F562
:10073000401F08D121F07061154E766826F0706672
:10074000134F7E6012E000F48016B6F5801F06D1CC
:10075000032606FA05F4A14341F0706106E0460D58
:10076000360103FA06F6B14341F0706122B1460D3D
:10077000360103FA06F6314300F00046B6F1004FA9
:1007800002D1034EF16101E0014E7160F0BD000045
:10079000000001400246002093680B400BB101208D
:1007A00000E00020704741617047016170470AB165
:1007B000016100E0416170472DE9F04700244FF4EA
:1007C00080713048FFF7F1FF0F20FFF7FDFE4FF477
:1007D00080712C48FFF7E7FF00BF0CE0601C84B27B
:1007E0000120FFF7F1FE42F21070844203DD40F277
:1007F000E730BDE8F0874FF400712248FFF7CAFFE9
:100800000028EBD00021204800F0CEFD01211E4839
:1008100000F000FD0DE01C4800F017FD4CF25031D7
:10082000884206DD0021184800F0F4FC40F2E73071
:10083000DFE74FF400711348FFF7ACFF0128EAD05F
:100840000021114800F0E6FC0F4800F0FEFC824653
:100850005046FFF79EFD074600220C4BFFF72AFD8E
:100860000546FFF7B7FD814609494846FFF7CEFD2B
:1008700002D240F2E730BCE74846FFF797FD80B26E
:10088000B7E70000000C01400008004000004D40A8
:1008900000C079441FB50121082000F0ABFB012105
:1008A000042000F097FB10208DF80F000001ADF838
:1008B0000C0003208DF80E0003A91448FFF796FEE4
:1008C00028208DF80F004FF40070ADF80C0003A93C
:1008D0000E48FFF78BFE4FF480710C48FFF763FF63
:1008E0000020ADF80600ADF802004FF6FF70ADF83D
:1008F00004004720ADF800006946054800F056FDA9
:100900000021034800F086FC1FBD0000000C0140E0
:100910000008004000BFFEE710B54FF40041024858
:10092000FFF741FF10BD00000008014010B54FF473
:1009300000410248FFF739FF10BD000000080140E8
:1009400010B508210148FFF72EFF10BD000C014033
:1009500010B508210148FFF728FF10BD000C014029
:1009600008B501210D2000F045FB01211048FFF7DB
:10097000C9FE10208DF8030003208DF802004FF40B
:100980000040ADF8000069460A48FFF72FFE082036
:10099000ADF8000069460848FFF728FE4FF4004113
:1009A0000448FFF700FF08210348FFF7FCFE08BDDD
:1009B0000002300000080140000C014000BFFEE7CB
:1009C00000B589B001210C2000F014FB01210220A8
:1009D00000F000FB10208DF8230003208DF822008A
:1009E0003020ADF8200008A91F48FFF7FFFD0320C5
:1009F000ADF8200008A91D48FFF7F8FD18208DF874
:100A00002300C020ADF8200008A91748FFF7EEFD2D
:100A100040F2E730ADF818004720ADF81400002090
:100A2000ADF81A00ADF8160005A9114800F0BEFC9B
:100A300001A800F0ABFC6020ADF804000120ADF887
:100A400006000020ADF80C00ADF80A0001A9084826
:100A500000F0FEFB01A9064800F046FC0121044815
:100A600000F0D8FB09B000BD00080140000C0140B7
:100A70000004004010B50446002C0CDB10210D488A
:100A8000FFF793FE20210B48FFF78DFEA1B20A4825
:100A900000F086FC0CE010210648FFF784FE2021C0
:100AA0000448FFF782FE604281B2034800F078FC00
:100AB00010BD0000000801400004004010B50446CD
:100AC000002C0CDB01210D48FFF76FFE02210B48C3
:100AD000FFF769FEA1B20A4800F064FC0CE00121B6
:100AE0000648FFF760FE02210448FFF75EFE604201
:100AF00081B2034800F056FC10BD0000000C01401C
:100B00000004004070B505460C46684205B2284610
:100B1000FFF7B0FF2046FFF7D1FF70BD70B5044668
:100B20000D46502654E03048B0F90000A0420DDADE
:100B30002D480088304400B22B4908800846B0F99F
:100B40000000A04214DD0846048011E02648B0F9F8
:100B50000000A0420CDD24480088801B00B222491E
:100B600008800846B0F90000A04201DA0846048077
:100B70001E48B0F90000A8420DDA1C480088304435
:100B800000B21A4908800846B0F90000A84214DDF6
:100B90000846058011E01548B0F90000A8420CDDB8
:100BA00012480088801B00B2104908800846B0F93E
:100BB0000000A84201DA084605800C48B0F9001090
:100BC0000948B0F90000FFF79DFF0520FFF7F0FC92
:100BD0000548B0F90000A042A5D10448B0F90000D2
:100BE000A842A0D170BD00002000002022000020FB
:100BF000704770B500240EE00021204600F0F3F8A5
:100C0000002504E0002000F07FF9681CC5B2802DAB
:100C1000F8DB601CC4B2082CEEDB70BD08B5012106
:100C2000082000F0E7F910208DF8030003208DF86C
:100C300002004FF48060ADF8000069460A48FFF7F3
:100C4000D5FC4FF40060ADF8000069460648FFF798
:100C5000CDFC012291020448FFF7A9FD0122D10237
:100C60000148FFF7A4FD08BD000C014070B5054622
:100C7000002419E080202041284008B1012000E034
:100C8000002002464FF400610E48FFF790FD01225C
:100C900091020C48FFF78BFD00224FF48061094858
:100CA000FFF785FD601CC4B2082CE3DB0122910232
:100CB0000448FFF77CFD00224FF480610148FFF7F4
:100CC00076FD70BD000C014010B50122D1020A482A
:100CD000FFF76DFD012291020748FFF768FD002232
:100CE0004FF400610448FFF762FD00224FF4806179
:100CF0000148FFF75CFD10BD000C014010B500225B
:100D00004FF400610648FFF752FD012291020448AA
:100D1000FFF74DFD0122D1020148FFF748FD10BD4C
:100D2000000C014070B5002406E0002500E06D1CB9
:100D3000B5F57A7FFBD3641CB4F57A7FF5D3FFF762
:100D40006DFFAE2000F0D0F8D52000F0CDF8802067
:100D500000F0CAF8A82000F0C7F83F2000F0C4F85F
:100D6000D32000F0C1F8002000F0BEF8402000F0D1
:100D7000BBF8A12000F0B8F8C82000F0B5F8DA20E0
:100D800000F0B2F8122000F0AFF8812000F0ACF8CB
:100D9000CF2000F0A9F8D92000F0A6F8F12000F04B
:100DA000A3F8DB2000F0A0F8302000F09DF8A4208C
:100DB00000F09AF8A62000F097F88D2000F094F843
:100DC000142000F091F8AF2000F08EF8FFF711FF2B
:100DD00070BD10B50246012000E050430B1EA1F18A
:100DE0000101FAD110BD70B505460C4645F0B000C2
:100DF00000F07AF8102141EA141000F075F804F0C0
:100E00000F0000F071F870BD2DE9F04105460E4667
:100E10001746721ED206110E6A1E5206100EFFF7FA
:100E2000E2FF002409E0A7F12001134A02EB0111BF
:100E3000085D00F069F8601CC4B2082CF3DB721E78
:100E4000D206110E6A1E012303EB4202D0B2FFF755
:100E5000CAFF00240BE0A7F12001074A02EB0112B0
:100E600004F10801505C00F04FF8601CC4B2082C7B
:100E7000F1DBBDE8F0810000041700082DE9F04720
:100E800080460E4617461D46002415E0281B411ECD
:100E90000A20FFF79EFFB7FBF0F00A21B0FBF1F24A
:100EA00001FB120000F130093019C1B24A46404638
:100EB000FFF7AAFF601CC4B2AC42E7DBBDE8F087D5
:100EC0002DE9F04107460E461546002407E02A5D4D
:100ED0003019C1B23846FFF797FF601CC4B2285DD5
:100EE0000028F4D1BDE8F08110B50446FFF7ECFE10
:100EF0007820FFF7BBFE0020FFF7B8FE2046FFF783
:100F0000B5FEFFF7FBFE10BD10B50446FFF7DCFE93
:100F10007820FFF7ABFE4020FFF7A8FE2046FFF742
:100F2000A5FEFFF7EBFE10BD00B589B0012140F62C
:100F3000040000F05FF818208DF823004FF4807053
:100F4000ADF8200003208DF8220008A91948FFF70A
:100F50004DFB0020ADF81A00ADF8160044F61F60F6
:100F6000ADF818004720ADF8140000208DF81C00E3
:100F700005A9114800F01AFA01A800F007FA60204C
:100F8000ADF804000020ADF80C000120ADF806001B
:100F90000020ADF80A0001A9074800F059F9012125
:100FA000054800F043F90121034800F033F909B086
:100FB00000BD000000080140002C014010B50446AF
:100FC0002146024800F0ECF910BD0000002C014061
:100FD0007047000029B1064AD2690243044BDA6126
:100FE00004E0034AD2698243014BDA617047000092
:100FF0000010024029B1064A92690243044B9A61EB
:1010000004E0034A92698243014B9A6170470000F1
:1010100000100240704700002DE9F04104460A49E3
:101020002046FFF709F980460849FFF7D3F807463D
:101030000749FFF777F80646FFF7B8F985B2284663
:10104000FFF7BCFFBDE8F081000034430000FA4424
:101050000000FA4310B500F001F810BD0CB50020F7
:10106000019000903348006840F4803031490860B6
:1010700000BF3048006800F4003000900198401C28
:101080000190009818B90198B0F5A06FF1D12948E6
:10109000006800F4003010B10120009001E0002051
:1010A00000900098012843D12348006840F01000C8
:1010B000214908600846006820F0030008600846DF
:1010C000006840F0020008601A484068194948600A
:1010D0000846406848600846406840F480604860C0
:1010E0000846406820F47C1048600846406840F498
:1010F000E81048600846006840F08070086000BF53
:101100000C48006800F000700028F9D009484068D9
:1011100020F00300074948600846406840F002009C
:10112000486000BF0348406800F00C000828F9D16F
:101130000CBD00000010024000200240174800884B
:10114000401C1649088016480088401C1449088035
:1011500014480088401C13490880104800880A2859
:1011600005DB00200D49088001200F4908700C485C
:101170000088642805DB00200949088001200B490C
:10118000087008480088B0F5FA6F05DB00200549B3
:1011900008800120064908707047000018000020F0
:1011A0001A0000201C000020140000201500002060
:1011B0001600002010B51348006840F001001149E6
:1011C000086008464068104908400E4948600846D3
:1011D00000680E4908400B4908600846006820F482
:1011E000802008600846406820F4FE0048604FF404
:1011F0001F008860FFF72EFF4FF000600449086071
:1012000010BD0000001002400000FFF8FFFFF6FED6
:1012100008ED00E021B1028842F00102028004E002
:1012200002884FF6FE731A400280704731B1B0F861
:10123000442042F40042A0F8442005E0B0F84420E5
:10124000C2F30E02A0F8442070470146888C704714
:1012500070B5002400220023058C4FF6FE76354041
:101260000584028C8388048B4FF68F752C40B51E45
:101270002C400D882C43751E2A400D892A434D8829
:101280002A43144DA8420BD0134DA84208D0134D49
:10129000A84205D0124DA84202D0124DA84213D147
:1012A0004FF6F7752A404D892A434FF6FB752A40C1
:1012B0008D882A434FF6FF652B404FF6FF552B4094
:1012C0008D892B43CD892B4383800483CD888586EC
:1012D000028470BD002C01400034014000400140F8
:1012E000004401400048014070B500240022002362
:1012F000058C4FF6EF7635400584028C8388048B8D
:1013000048F6FF752C404FF6FF452C400D884FF6F0
:10131000FF7606EA05252C434FF6DF752A400D8936
:1013200006EA05152A434D8806EA05152A43154D98
:10133000A84202D0144DA8421DD14FF67F752A4015
:101340004D894FF6FF7606EA05152A434FF6BF751D
:101350002A408D8806EA05152A434FF6FF352B40B3
:101360004FF2FF752B408D8906EA85052B43CD8909
:1013700006EA85052B4383800483CD880587028494
:1013800070BD0000002C01400034014000210180AC
:1013900041808180C180018141818181C18170470B
:1013A00081867047018770478184704700220288D8
:1013B0001D4B98420ED01D4B98420BD0B0F1804F80
:1013C00008D01B4B984205D01A4B984202D01A4BBA
:1013D000984204D14FF68F731A404B881A43174B2B
:1013E000984207D0164B984204D04FF6FF431A405C
:1013F000CB881A4302808B8883850B8803850A4B30
:1014000098420BD0094B984208D00E4B984205D019
:101410000D4B984202D00D4B984201D10B7A0386B6
:101420000123838270470000002C014000340140FA
:101430000004004000080040000C00400010004084
:1014400000140040004001400044014000480140B9
:1014500010B540F225510D4800F02BF8A8B10B480B
:1014600000F051F8C4B2462C07D0422C05D04C2CC9
:1014700003D0522C01D0532C01D10548047040F206
:101480002551024800F006F800BF10BD00380140A9
:101490001E00002010B50022002340F66A14A1426D
:1014A00000D100BF0A1201249440A3B2DC4304809F
:1014B00010BD70B50246002400230025002040F630
:1014C0006A16B14200D100BFC1F3421501F01F03FB
:1014D000012606FA03F3012D02D19689334006E076
:1014E000022D02D1168A334001E0968A33400C1255
:1014F000012606FA04F41688344013B10CB1012019
:1015000000E0002070BD01468888C0F308007047E5
:1015100000BFFEE702E008C8121F08C1002AFAD186
:1015200070477047002001E001C1121F002AFBD163
:1015300070470000FFF7F6FBFFF742FAFFF710FADB
:10154000FFF7A8F9FFF7F0FC53A201210846FFF7C7
:10155000B7FC55A201210220FFF7B2FC5548FFF766
:101560005BFD55A201210420FFF7AAFC4FF47A701D
:10157000FFF71EF854A201210420FFF7A1FC4FF44D
:101580007A70FFF715F854A201210420FFF798FCA8
:101590004FF47A70FFF70CF853A201210420FFF7F3
:1015A0008FFC00240025002674E04248FFF734FD3C
:1015B0001420FEF7FDFFFFF7FFF804460323224641
:1015C00007210220FFF75AFC282C09DD4FF4FA719D
:1015D0000846FFF7A3FAFFF7A9F9FFF7B1F956E0BC
:1015E000142C0BDD282C09DC4FF496710846FFF70C
:1015F00095FAFFF79BF9FFF7A3F948E000210846A9
:10160000FFF78CFAFFF788F9FFF7A2F9C820FEF779
:10161000CFFF3948FFF700FD4FF4C870FEF7C8FF51
:10162000FFF7CAF806463548FFF7F6FC4FF4C870D6
:10163000FEF7BEFFFFF7C0F805461E48FFF7ECFCBB
:101640004FF4C870FEF7B4FFAE4210DD2C490846D7
:10165000FFF764FAC820FEF7ABFF294996394842E4
:10166000FFF75CFA4FF4AF70FEF7A2FF0FE02449DA
:101670000846FFF753FAC820FEF79AFF4FF4FA71B5
:101680004842FFF74BFA4FF4AF70FEF791FF14207A
:10169000FEF78EFF89E700004D6F64653A204176C2
:1016A0006F6964616E636500446973743A20202039
:1016B00020636D000000B4425374617274696E67F8
:1016C00020696E20337300005374617274696E6711
:1016D00020696E20327300005374617274696E6702
:1016E00020696E203173000052756E6E696E672E30
:1016F0002E2E2020202000000000A04100002043CA
:10170000A2FEFFFF0000000000000000000000003B
:1017100000000000000000F800000000000000339E
:101720003000000000100C06100C06000000000045
:101730000000000040C07840C0784000043F04042E
:101740003F040400007088FC08300000001820FFEF
:10175000211E0000F008F000E018000000211C032A
:101760001E211E0000F00888700000001E212324A6
:101770001927211010160E000000000000000000C4
:1017800000000000000000E0180402000000000754
:101790001820400000020418E0000000004020185B
:1017A00007000000404080F0804040000202010F2E
:1017B00001020200000000F0000000000101011F12
:1017C00001010100000000000000000080B0700076
:1017D0000000000000000000000000000001010106
:1017E0000101010100000000000000000030300095
:1017F000000000000000000080601804006018066F
:101800000100000000E010080810E000000F1020A8
:1018100020100F00001010F8000000000020203FF2
:10182000202000000070080808887000003028247C
:10183000222130000030088888483000001820201D
:1018400020110E000000C02010F800000007042442
:10185000243F240000F80888880808000019212087
:1018600020110E0000E0108888180000000F1120E1
:1018700020110E0000380808C83808000000003F9A
:10188000000000000070880808887000001C2221F9
:1018900021221C0000E010080810E00000003122A6
:1018A00022110F00000000C0C00000000000003046
:1018B0003000000000000080000000000000806098
:1018C0000000000000008040201008000001020419
:1018D0000810200040404040404040000404040400
:1018E00004040400000810204080000000201008BC
:1018F00004020100007048080808F00000000030F1
:1019000036010000C030C828E810E000071827247E
:1019100023140B000000C038E0000000203C23022C
:101920000227382008F8888888700000203F20208F
:1019300020110E00C03008080808380007182020C1
:101940002010080008F808080810E000203F2020B8
:1019500020100F0008F88888E8081000203F202099
:101960002320180008F88888E8081000203F20008D
:1019700003000000C03008080838000007182020C5
:10198000221E020008F808000008F808203F210184
:1019900001213F20000808F8080800000020203F2F
:1019A0002020000000000808F8080800C08080809F
:1019B0007F00000008F888C028180800203F200198
:1019C0002638200008F8080000000000203F2020F2
:1019D0002020300008F8F800F8F80800203F003F09
:1019E000003F200008F830C00008F808203F200021
:1019F00007183F00E01008080810E0000F10202032
:101A000020100F0008F808080808F000203F210106
:101A100001010000E01008080810E0000F1824245D
:101A200038504F0008F8888888887000203F2000D0
:101A3000030C302000708808080838000038202186
:101A400021221C00180808F8080818000000203F90
:101A50002000000008F808000008F808001F2020F7
:101A600020201F000878880000C8380800000738C8
:101A70000E010000F80800F80008F800033C070019
:101A8000073C0300081868808068180820302C0381
:101A9000032C30200838C800C83808000000203F58
:101AA0002000000010080808C83808002038262147
:101AB00020201800000000FE020202000000007F4B
:101AC00040404000000C30C0000000000000000159
:101AD0000638C00000020202FE0000000040404044
:101AE0007F00000000000402020204000000000069
:101AF00000000000000000000000000080808080E6
:101B000080808080000202040000000000000000CD
:101B10000000000000008080808000000019242266
:101B200022223F2008F8008080000000003F1120A2
:101B300020110E000000008080800000000E1120A7
:101B400020201100000000808088F800000E112085
:101B500020103F200000808080800000001F222293
:101B600022221300008080F0888888180020203FFF
:101B7000202000000000808080808000006B949412
:101B80009493600008F8008080800000203F2100CE
:101B900000203F2000809898000000000020203F97
:101BA00020200000000000809898000000C0808085
:101BB000807F000008F8000080808000203F240221
:101BC0002D302000000808F8000000000020203F11
:101BD000202000008080808080808000203F2000C6
:101BE0003F20003F8080008080800000203F210057
:101BF00000203F200000808080800000001F202007
:101C000020201F00808000808000000080FFA12035
:101C100020110E000000008080808000000E112046
:101C200020A0FF80808080008080800020203F21D5
:101C30002000010000008080808080000033242488
:101C400024241900008080E0808000000000001F34
:101C5000202000008080000000808000001F2020E5
:101C600020103F20808080000080808000010E30A6
:101C70000806010080800080008080800F300C0307
:101C80000C300F0000808000808080000020312E0A
:101C90000E312000808080000080808080818E70E6
:101CA0001806010000808080808080000021302C98
:101CB0002221300000000000807C020200000000B1
:101CC000003F404000000000FF0000000000000056
:101CD000FF0000000002027C800000000040403F46
:101CE00000000000000601010202040400000000E0
:101CF00000000000141D0008000000202400000067
:101D000014150008381D00082400002004040000F9
:101D10002415000800A24A04000000000000000092
:101D2000010203040607080900000000000000008B
:081D30000000000000000000AB
:0400000508000101ED
:00000001FF
