:020000040800F2
:100000004804002001010008290C0008550A0008D6
:10001000C90A0008F7050008ED15000800000000F7
:100020000000000000000000000000004D1000086B
:1000300039060008000000000910000875110008CA
:100040001B0100081B0100081B0100081B01000820
:100050001B0100081B0100081B0100081B01000810
:100060001B0100081B0100081B0100081B01000800
:100070001B0100081B0100081B0100081B010008F0
:100080001B0100081B0100081B0100081B010008E0
:100090001B0100081B0100081B0100081B010008D0
:1000A0001B0100081B0100081B0100081B010008C0
:1000B0001B0100081B0100081B0100081B010008B0
:1000C0001B0100081B0100081B0100081B010008A0
:1000D0001B0100082D1500081B0100081B0100086A
:1000E0001B0100081B0100081B010008DFF80CD0F1
:1000F00000F050FA0048004711160008480400209C
:100100000648804706480047FEE7FEE7FEE7FEE7B1
:10011000FEE7FEE7FEE7FEE7FEE7FEE7ED1100087B
:10012000ED000008F0B480EA0102D40F4200B2EB07
:10013000410F02D20246084611464A0042D0C30D82
:10014000DDB2C1F3C752AD1A202D35DAC1F3160165
:1001500041F4000204B15242C5F1200602FA06F150
:100160002A411044B3EBD05F23D0C4B1012DA0EBE2
:10017000C35009DCF0BC4FF0004202EAC352DBB2CC
:1001800000F5000000F07BB9400000F1807000EB4A
:10019000C350A0F1807040EAD170490009E04908DD
:1001A00041EAC071A0EBC35000F50000400800EB2D
:1001B000C350F0BC00F05AB96142012202EB410188
:1001C000001BF6E7F0BC704781F00041AAE780F021
:1001D0000040A7E780EA010210B502F000434000AA
:1001E00022D04A001FD0010E01EB1261C0F356006D
:1001F000C2F3560240F4000042F40002A0FB0220C9
:1002000000047F39140400D0401C50EA124001D48D
:100210004000491EC2B20C0604EBD010401C40083E
:10022000802A02D003E0002010BD20F00100002948
:1002300000DA0020184310BD30B480EA010202F059
:10024000004530F0004221F0004013D090B1C30DC2
:10025000D40DC2F31601C0F31600E41A41F40001F4
:1002600040F400027D34914201D3641C00E0490057
:10027000002C02DA30BC002070474FF4000000234D
:10028000914201D3891A034340084FEA4101F7D153
:1002900051B1914202D14FF0004105E002D24FF03E
:1002A000010101E06FF0010103EBC450284430BCB0
:1002B00000F0DCB82DE9FE4F81EA030404F00044AD
:1002C00021F0004100944FF0000B23F0004350EA6E
:1002D00001045ED052EA03045BD0C3F30A54C1F3B5
:1002E0000A552C44A4F2F3340194A0FB0254C1F348
:1002F000130141F48011C3F3130343F4801301FB92
:10030000024400FB034E840A970A44EA815447EAF8
:100310008357A4FB076802958D0A05FB07854FEA02
:10032000932C04FB0C542705029D4FEA065847EA1C
:100330001637B5EB08056EEB070C870E920E47EAF1
:10034000811742EA8312A7FB0201B6EB0B0164EBB3
:1003500000042B0D43EA0C335E1844EB1C50DA46C4
:100360005146E7FB0201C5F313044FEA0B3343EA9E
:1003700014534FEA0432019C43EA0603A4F10C042F
:100380000294009CCDE900B400F0B6F803B0BDE8DB
:10039000F08F00200146F9E7C10F80EAE0700844C1
:1003A000CA079623002100F06AB80EB540F2334127
:1003B00002910021CDE900110A460B4600F09CF89D
:1003C00003B000BD00F0004220F00040C10DC0F3BA
:1003D000160040F400007F2901DA002070479629BA
:1003E00003DCC1F19601C84001E096398840002A3B
:1003F000F4D04042704720F00040C10DC0F3160019
:1004000040F400007F2901DA00207047962903DCC0
:10041000C1F19601C840704796398840704701F095
:10042000004330B421F0004150EA010206D00A0D29
:10043000A2F56072C1F31301002A02DC30BC002077
:100440007047440F44EAC104C100E01830BC00EB1F
:10045000C25000F00BB80000002801DBC0F10040E2
:10046000002901DBC1F10041884270470029A8BF83
:100470007047401C490008BF20F00100704710B4CD
:10048000B0FA80FC00FA0CF050EA010404BF10BC82
:10049000704749B1CCF1200421FA04F411FA0CF1AF
:1004A00018BF012121430843A3EB0C01CB1D4FEAE8
:1004B00000614FEA102042BF002010BC704700EBE3
:1004C000C35010440029A4BF10BC7047401C490011
:1004D00008BF20F0010010BC704710B5141E73F166
:1004E000000408DA401C41F1000192185B411A43F4
:1004F00001D120F0010010BD2DE9F04D92469B4640
:1005000011B1B1FA81F202E0B0FA80F220329046E5
:1005100000F052F804460F4640EA0A0041EA0B0197
:1005200053465A46084313D0114653EA010019D0E6
:10053000C8F14002504600F04EF805460E465046BF
:100540005946424600F038F8084305D0012004E03F
:1005500020463946BDE8F08D0020054346EAE076A6
:100560002C4337430A986305E40AA0EB08000022F5
:10057000FD0A44EA47540A3002D500200146E9E763
:10058000010510196941DDE9084500196941BDE817
:10059000F04DA2E7064C074D06E0E06840F001038D
:1005A00094E8070098471034AC42F6D3FFF7A2FD59
:1005B000C8210008E8210008202A04DB203A00FABC
:1005C00002F1002070479140C2F1200320FA03F3AA
:1005D000194390407047202A04DB203A21FA02F0A8
:1005E0000021704721FA02F3D040C2F1200291406D
:1005F00008431946704700BFFEE7000008B5012117
:10060000092000F013FD0121094800F015F9102020
:100610008DF80300ADF8000003208DF80200694654
:10062000044800F07DF81021024800F058F908BD98
:1006300000023000000C0140704710B5044603E092
:100640004FF47A7000F006F8201EA4F10104F7D1EF
:1006500010BD0000064A1268064BB2FBF3F202FB23
:1006600000F100BF0A1EA1F10101FBD1704700009B
:100670000000002000127A0010B54FF0804000F01A
:1006800021FE04B200214FF0804000F0CBFE60421A
:1006900000B210BD10B5054800F014FE04B20021F0
:1006A000024800F0BFFE204610BD000000080040D8
:1006B00008B50121052000F0A9FC01210C2000F063
:1006C000B5FC04208DF8030003208DF80200ADF87E
:1006D000000069460F4800F023F8C020ADF8000084
:1006E00069460D4800F01CF800231A4603214FF01C
:1006F000804000F0C6FD00231A460321074800F0A1
:10070000C0FD0121880700F0A1FD0121034800F090
:100710009DFD08BD00080140000C0140000800409C
:100720002DE9F04102460025002600200023002488
:10073000002791F803C00CF00F0591F803C00CF0EE
:10074000100CBCF1000F03D091F802C04CEA050573
:1007500091F800C0BCF1000F31D0146800202BE0EC
:100760004FF0010C0CFA00F3B1F800C00CEA0306DC
:100770009E4220D183004FF00F0C0CFA03F7BC43CC
:1007800005FA03FC4CEA040491F803C0BCF1280FFD
:1007900006D14FF0010C0CFA00FCC2F814C00AE0BC
:1007A00091F803C0BCF1480F05D14FF0010C0CFAD1
:1007B00000FCC2F810C0401C0828D1D31460B1F866
:1007C00000C0BCF1FF0F34DD546800202EE000F1C2
:1007D000080C4FF0010808FA0CF3B1F800C00CEA5D
:1007E00003069E4221D183004FF00F0C0CFA03F751
:1007F000BC4305FA03FC4CEA040491F803C0BCF1C5
:10080000280F05D100F1080C08FA0CF8C2F8148082
:1008100091F803C0BCF1480F07D100F1080C4FF06C
:10082000010808FA0CF8C2F81080401C0828CED342
:100830005460BDE8F0810000F0B50A4600230024B2
:100840000021002500F00046B6F1004F02D11D4EF8
:10085000F16901E01B4E7168C0F3034583B200F4F7
:100860004016B6F5401F08D121F07061154E76682C
:1008700026F07066134F7E6012E000F48016B6F525
:10088000801F06D1032606FA05F4A14341F07061EA
:1008900006E0460D360103FA06F6B14341F07061F9
:1008A00022B1460D360103FA06F6314300F0004648
:1008B000B6F1004F02D1034EF16101E0014E7160CB
:1008C000F0BD0000000001400246002093680B408C
:1008D0000BB1012000E000207047416170470161C9
:1008E00070470AB1016100E0416170473EB50020E8
:1008F0000090019002900025002408E000F02CF800
:100900002DF814000520FFF798FE601CC4B2052CDA
:10091000F4DB00211AE0002012E03DF81030421C08
:100920003DF81220934209DD3DF81050421C3DF87D
:1009300012202DF81020421C2DF81250421CD0B26B
:10094000C1F104028242E8DC481CC1B20429E2DBA6
:10095000BDF804003EBD00002DE9F0470024A1468B
:100960004FF480712348FFF7BAFF0F20FFF772FEA4
:100970004FF480711F48FFF7B0FF0BE009F1010948
:100980000120FFF767FE1C48814503D940F2E7309C
:10099000BDE8F0874FF400711648FFF795FF002877
:1009A000ECD0002406E0641C1348844202D940F2D3
:1009B000E730EDE74FF400710E48FFF785FF01289F
:1009C000F1D02046FFF7F1FC07460C4A0C4BFFF72D
:1009D00071FC0546FFF723FD82460A495046FFF7A2
:1009E0003BFD02D240F2E730D2E75046FFF703FD6D
:1009F00080B2CDE7000C0140A086010079E92631E4
:100A000008AC6C3F00C0794408B50121082000F013
:100A10000DFB10208DF803000001ADF8000003204D
:100A20008DF8020069460A48FFF77AFE28208DF803
:100A300003004FF40070ADF8000069460448FFF76A
:100A40006FFE4FF480710248FFF747FF08BD0000BA
:100A5000000C014000BFFEE708B50121182000F09E
:100A6000E5FA48208DF803004FF4E040ADF80000AF
:100A700069460B48FFF754FE10208DF80300032051
:100A80008DF802004FF40050ADF8000069460548AB
:100A9000FFF746FE4FF400510248FFF71EFF08BD66
:100AA000000C0140001001400146B1F5487F02DD15
:100AB0004FF44870704711F5487F01DA0148F9E7B3
:100AC0000846F7E7E0FCFFFF00BFFEE700B589B08E
:100AD00001210C2000F0AAFA0121022000F096FA70
:100AE00010208DF8230003208DF822003020ADF86F
:100AF000200008A91F48FFF713FE0320ADF82000CF
:100B000008A91D48FFF70CFE18208DF82300C0200F
:100B1000ADF8200008A91748FFF702FE40F2E730C1
:100B2000ADF818004720ADF814000020ADF81A0009
:100B3000ADF8160005A9114800F076FC01A800F0F8
:100B400063FC6020ADF804000120ADF80600002031
:100B5000ADF80C00ADF80A0001A9084800F0B6FB9A
:100B600001A9064800F0FEFB0121044800F06EFBDD
:100B700009B000BD00080140000C01400004004025
:100B800010B50446002C0CDB10210D48FFF7A7FE22
:100B900020210B48FFF7A1FEA1B20A4800F03EFC5D
:100BA0000CE010210648FFF798FE20210448FFF7CB
:100BB00096FE604281B2034800F030FC10BD000098
:100BC000000801400004004010B50446002C0CDB76
:100BD00001210D48FFF783FE02210B48FFF77DFE40
:100BE000A1B20A4800F01CFC0CE001210648FFF706
:100BF00074FE02210448FFF772FE604281B203488E
:100C000000F00EFC10BD0000000C0140000400408C
:100C100070B505460C46684205B22846FFF7B0FF9E
:100C20002046FFF7D1FF70BD704770B500240EE07D
:100C30000021204600F0F3F8002504E0002000F039
:100C40007FF9681CC5B2802DF8DB601CC4B2082C8B
:100C5000EEDB70BD08B50121082000F0E7F9142093
:100C60008DF8030003208DF802004FF48060ADF88A
:100C7000000069460A48FFF753FD4FF40060ADF8E5
:100C8000000069460648FFF74BFD01229102044827
:100C9000FFF727FE0122D1020148FFF722FE08BD1F
:100CA000000C014070B50546002419E08020204169
:100CB000284008B1012000E0002002464FF4006106
:100CC0000E48FFF70EFE012291020C48FFF709FEC5
:100CD00000224FF480610948FFF703FE601CC4B294
:100CE000082CE3DB012291020448FFF7FAFD002201
:100CF0004FF480610148FFF7F4FD70BD000C014026
:100D000010B50122D1020A48FFF7EBFD0122910242
:100D10000748FFF7E6FD00224FF400610448FFF7A3
:100D2000E0FD00224FF480610148FFF7DAFD10BDBD
:100D3000000C014010B500224FF400610648FFF797
:100D4000D0FD012291020448FFF7CBFD0122D10220
:100D50000148FFF7C6FD10BD000C014070B500242E
:100D600006E0002500E06D1CB5F57A7FFBD3641C1E
:100D7000B4F57A7FF5D3FFF76DFFAE2000F0D0F821
:100D8000D52000F0CDF8802000F0CAF8A82000F0AF
:100D9000C7F83F2000F0C4F8D32000F0C1F80020CD
:100DA00000F0BEF8402000F0BBF8A12000F0B8F839
:100DB000C82000F0B5F8DA2000F0B2F8122000F0F8
:100DC000AFF8812000F0ACF8CF2000F0A9F8D920CE
:100DD00000F0A6F8F12000F0A3F8DB2000F0A0F866
:100DE000302000F09DF8A42000F09AF8A62000F032
:100DF00097F88D2000F094F8142000F091F8AF20BF
:100E000000F08EF8FFF711FF70BD10B5024601200B
:100E100000E050430B1EA1F10101FAD110BD70B5E5
:100E200005460C4645F0B00000F07AF8102141EA82
:100E3000141000F075F804F00F0000F071F870BDA8
:100E40002DE9F04105460E461746721ED206110ED8
:100E50006A1E5206100EFFF7E2FF002409E0A7F118
:100E60002001134A02EB0111085D00F069F8601CD3
:100E7000C4B2082CF3DB721ED206110E6A1E0123C7
:100E800003EB4202D0B2FFF7CAFF00240BE0A7F148
:100E90002001074A02EB011204F10801505C00F046
:100EA0004FF8601CC4B2082CF1DBBDE8F0810000F3
:100EB000D81B00082DE9F04780460E4617461D4610
:100EC000002415E0281B411E0A20FFF79EFFB7FBF8
:100ED000F0F00A21B0FBF1F201FB120000F1300941
:100EE0003019C1B24A464046FFF7AAFF601CC4B29F
:100EF000AC42E7DBBDE8F0872DE9F04107460E463E
:100F00001546002407E02A5D3019C1B23846FFF7C4
:100F100097FF601CC4B2285D0028F4D1BDE8F081C1
:100F200010B50446FFF7ECFE7820FFF7BBFE00206B
:100F3000FFF7B8FE2046FFF7B5FEFFF7FBFE10BD3A
:100F400010B50446FFF7DCFE7820FFF7ABFE40202B
:100F5000FFF7A8FE2046FFF7A5FEFFF7EBFE10BD4A
:100F600000B589B0012140F6040000F05FF81820B8
:100F70008DF823004FF48070ADF8200003208DF829
:100F8000220008A91948FFF7CBFB0020ADF81A0092
:100F9000ADF8160044F61F60ADF818004720ADF814
:100FA000140000208DF81C0005A9114800F03CFA3F
:100FB00001A800F029FA6020ADF804000020ADF887
:100FC0000C000120ADF806000020ADF80A0001A9D0
:100FD000074800F07BF90121054800F043F90121A1
:100FE000034800F033F909B000BD000000080140DB
:100FF000002C014010B504462146024800F00EFACC
:1010000010BD0000002C01407047000029B1064AC5
:10101000D2690243044BDA6104E0034AD269824395
:10102000014BDA61704700000010024029B1064A06
:1010300092690243044B9A6104E0034A9269824335
:10104000014B9A6170470000001002407047000099
:101050002DE9F04104460A492046FFF7EDF88046A5
:101060000849FFF7B7F807460749FFF75BF8064658
:10107000FFF7C1F985B22846FFF7BCFFBDE8F08154
:10108000000034430000FA440000FA4310B500F0B9
:1010900001F810BD0CB500200190009033480068A5
:1010A00040F480303149086000BF3048006800F4E7
:1010B000003000900198401C0190009818B90198E8
:1010C000B0F5A06FF1D12948006800F4003010B1EC
:1010D0000120009001E0002000900098012843D1F9
:1010E0002348006840F01000214908600846006865
:1010F00020F0030008600846006840F00200086025
:101100001A484068194948600846406848600846DF
:10111000406840F4806048600846406820F47C10D5
:1011200048600846406840F4E81048600846006897
:1011300040F08070086000BF0C48006800F000704C
:101140000028F9D00948406820F0030007494860AA
:101150000846406840F00200486000BF034840680D
:1011600000F00C000828F9D10CBD0000001002406E
:101170000020024017480088401C16490880164885
:101180000088401C1449088014480088401C1349FA
:101190000880104800880A2805DB00200D490880D7
:1011A00001200F4908700C480088642805DB0020E6
:1011B0000949088001200B49087008480088B0F5EB
:1011C000FA6F05DB002005490880012006490870F8
:1011D00070470000180000201A0000201C000020AA
:1011E00014000020150000201600002010B5134840
:1011F000006840F001001149086008464068104945
:1012000008400E494860084600680E4908400B49EE
:1012100008600846006820F480200860084640689E
:1012200020F4FE0048604FF41F008860FFF72EFF97
:101230004FF000600449086010BD0000001002403B
:101240000000FFF8FFFFF6FE08ED00E021B1028884
:1012500042F00102028004E002884FF6FE731A4059
:101260000280704731B1B0F8442042F40042A0F847
:10127000442005E0B0F84420C2F30E02A0F8442058
:101280007047F0B50C4615461E460021002200238B
:101290000189028B038C4FF6F877394021434FF6D2
:1012A000FC473A4040F201173A434FF6DD773B40A6
:1012B0004FF6FF7707EA06172F433B43018102836E
:1012C0000384F0BD0146888C7047000070B500248F
:1012D00000220023058C4FF6FE7635400584028CF3
:1012E0008388048B4FF68F752C40B51E2C400D88DB
:1012F0002C43751E2A400D892A434D882A43144DDC
:10130000A8420BD0134DA84208D0134DA84205D0D7
:10131000124DA84202D0124DA84213D14FF6F775D4
:101320002A404D892A434FF6FB752A408D882A436F
:101330004FF6FF652B404FF6FF552B408D892B4311
:10134000CD892B4383800483CD888586028470BD3C
:10135000002C0140003401400040014000440140A5
:101360000048014070B5002400220023058C4FF690
:10137000EF7635400584028C8388048B48F6FF7530
:101380002C404FF6FF452C400D884FF6FF7606EABD
:1013900005252C434FF6DF752A400D8906EA051511
:1013A0002A434D8806EA05152A43154DA84202D066
:1013B000144DA8421DD14FF67F752A404D894FF636
:1013C000FF7606EA05152A434FF6BF752A408D8839
:1013D00006EA05152A434FF6FF352B404FF2FF75FD
:1013E0002B408D8906EA85052B43CD8906EA8505C4
:1013F0002B4383800483CD880587028470BD000061
:10140000002C014000340140002101804180818096
:10141000C180018141818181C1817047818670478E
:101420000187704781847047002202881D4B9842D3
:101430000ED01D4B98420BD0B0F1804F08D01B4B03
:10144000984205D01A4B984202D01A4B984204D1C8
:101450004FF68F731A404B881A43174B984207D0A8
:10146000164B984204D04FF6FF431A40CB881A43DC
:1014700002808B8883850B8803850A4B98420BD0AA
:10148000094B984208D00E4B984205D00D4B98421C
:1014900002D00D4B984201D10B7A0386012383823F
:1014A00070470000002C014000340140000400405F
:1014B00000080040000C00400010004000140040F4
:1014C00000400140004401400048014030B514484C
:1014D00000684FF47A72B0FBF2F1B1F1807F00D373
:1014E0001DE021F07F40401E4FF0E0225061501778
:1014F0000F22002807DA13071D0E0A4B00F00F0415
:10150000241F1D5503E013071C0E074B1C5400BF7E
:1015100000204FF0E02290610720106100BF30BD35
:101520000000002018ED00E000E400E010B540F2FB
:1015300025510D4800F02BF8A8B10B4800F051F8E8
:10154000C4B2462C07D0422C05D04C2C03D0522CD0
:1015500001D0532C01D10548047040F225510248B6
:1015600000F006F800BF10BD003801401E0000204A
:1015700010B50022002340F66A14A14200D100BF3A
:101580000A1201249440A3B2DC43048010BD70B55C
:101590000246002400230025002040F66A16B142CE
:1015A00000D100BFC1F3421501F01F03012606FA66
:1015B00003F3012D02D19689334006E0022D02D1BA
:1015C000168A334001E0968A33400C12012606FA4F
:1015D00004F41688344013B10CB1012000E000205F
:1015E00070BD01468888C0F30800704700BFFEE761
:1015F00002E008C8121F08C1002AFAD170477047DC
:10160000002001E001C1121F002AFBD17047000039
:1016100086B0FFF7A3FBFFF759FAFFF749F8FFF78A
:101620009FFCFFF7F1F9FFF717FAFFF74FFFFEF7FF
:10163000E5FFF748FFF70CFDF6A201210846FFF78A
:101640005BFC9AE2F8480078012870D10020F64946
:1016500008704FF48051F548FFF736F906464FF40D
:101660000051F248FFF730F905904FF48041EF4800
:10167000FFF72AF90746EE48007805281BD2DFE875
:1016800000F0031B43C9E6000020EA490880EA494C
:101690000880EA480088401CE8490880084600881D
:1016A000B0F5967F07DD0120E14908700020E3498D
:1016B0000880FFF7BAFAD8E0059838B1E04800880A
:1016C00000280ADDDE4800880F2806DA0320D84902
:1016D00008702820D949088015E0D94800880F28CB
:1016E00003DBD7480088232801DB06B137B9022085
:1016F000CF4908700120D349087004E02320CD4968
:101700000880CD490880B0E00020CA490880CA4955
:101710000880CC48007801280AD1CB48FFF798FC14
:101720003220C64908800220C649087071E051E1A4
:10173000C4480078022817D1C0480088002805DD79
:10174000BE480088401EBD49088062E0BC48008851
:10175000BE490880BE48FFF77BFC3C20B7490880A3
:101760000320B849087054E0B6480078032817D120
:10177000B2480088002805DDB0480088401EAF4907
:10178000088046E0AE480088B2490880A048FFF7CC
:101790005FFC2820A94908800420AA49087038E085
:1017A000A8480078042834D1A4480088002805DD22
:1017B000A2480088401EA14908802AE004209C49D4
:1017C000087032209D490880A0480088A1490988F6
:1017D000884209DD012E07D16FF018009549088075
:1017E00019209549088014E09A480088974909888B
:1017F000884208DB012F06D119208E49088040421B
:101800008D49088005E00320894908703C208B49F8
:1018100008802AE06FF01800864908808649088011
:1018200086480088002805DD84480088401E8349DA
:1018300008800BE004207E49087019207D4908804B
:1018400040427D4908803C207C4908800DE07B486F
:101850000088002805DD79480088401E7749088007
:1018600002E001207249087000BF00BFFEF704FFCC
:1018700079490880FEF70EFF784908806D48008896
:1018800075490988401A04B275480088204400B29E
:10189000734908800846B0F90000B0F57A7F02DD90
:1018A0004FF47A7008806E48B0F9000010F57A7F26
:1018B00003DA4FF618406A4908806A49B1F9001006
:1018C000601AFEF769FD0390674801680398FEF708
:1018D00081FC83466248B0F90000FEF75DFD01908F
:1018E000624801680198FEF775FC03902046FEF7F8
:1018F00053FD01905E4801680198FEF76BFC029071
:101900000399FEF70FFC59460490FEF70BFC824644
:10191000FEF758FD0FFA80F85248048046480088C8
:101920004E490988401A05B252480088284400B23E
:10193000504908800846B0F90000B0F57A7F02DD12
:101940004FF47A7008804B48B0F9000010F57A7FA8
:1019500003DA4FF61840474908804749B1F90010AB
:10196000681AFEF719FD83463F4801685846FEF79E
:1019700031FC04903F48B0F90000FEF70DFD0190E6
:101980003A4801680198FEF725FC83462846FEF791
:1019900003FD0190364801680198FEF71BFC59468B
:1019A0000290FEF7BFFB03900499FEF7BBFB824653
:1019B000FEF708FD0FFA80F92F4805804846FFF72B
:1019C00073F882464046FFF76FF883465146FFF7AB
:1019D0001FF900BF29480078012875D10020274948
:1019E0000870FEF783FF164908801148007828B96F
:1019F00023A201210846FFF77FFA6BE00C4800782C
:101A000001284DD122A201210846FFF775FA61E0B5
:101A10000000B44253595354454D20424F4F54494E
:101A20004E472E2E0000000014000020000C014044
:101A30002000002030000020320000204200002062
:101A4000220000204000002000002043440000202D
:101A50000000A041460000203C0000203E00002085
:101A600034000020380000202C0000202800002036
:101A700024000020360000203A000020150000203D
:101A80004D6F64653A20574149542033732000005C
:101A90004D6F64653A204352554953494E47000003
:101AA00036480078022805D135A201210846FFF703
:101AB00023FA0FE031480078032806D134A201212F
:101AC0000846FFF719FA05E057E035A2012108465C
:101AD000FFF712FA3648B0F9000000280EDA35A2F6
:101AE00001210220FFF708FA03233148B0F9000072
:101AF000424204210220FFF7DDF90CE02EA2012171
:101B00000220FFF7F9F903232948B0F90020042146
:101B10000220FFF7CFF92948B0F9000000280EDABB
:101B200027A209210220FFF7E7F903232348B0F990
:101B3000000042420C210220FFF7BCF90CE021A278
:101B400009210220FFF7D8F903231C48B0F900202F
:101B50000C210220FFF7AEF91BA201210320FFF7A1
:101B6000CBF903231A48028806211846FFF7A2F989
:101B700018A20C210320FFF7BFF963E52000002025
:101B80004D6F64653A205343414E4E494E47000025
:101B90004D6F64653A204241434B55502020000070
:101BA0004D6F64653A205455524E494E472000000F
:101BB0003C0000204C3A2D004C3A20003E00002012
:101BC000523A2D00523A2000446973743A000000E2
:101BD00022000020636D00000000000000000000F3
:101BE0000000000000000000000000F800000000FD
:101BF000000000333000000000100C06100C06003E
:101C0000000000000000000040C07840C0784000A4
:101C1000043F04043F040400007088FC0830000006
:101C2000001820FF211E0000F008F000E01800005E
:101C300000211C031E211E0000F008887000000017
:101C40001E2123241927211010160E000000000069
:101C50000000000000000000000000E01804020086
:101C6000000000071820400000020418E0000000F7
:101C70000040201807000000404080F080404000F5
:101C80000202010F01020200000000F0000000004B
:101C90000101011F0101010000000000000000001F
:101CA00080B0700000000000000000000000000094
:101CB000000101010101010100000000000000001D
:101CC00000303000000000000000000080601804B8
:101CD000006018060100000000E010080810E00095
:101CE000000F102020100F00001010F8000000005E
:101CF0000020203F202000000070080808887000A5
:101D00000030282422213000003008888848300024
:101D10000018202020110E000000C02010F8000044
:101D200000070424243F240000F8088888080800DD
:101D30000019212020110E0000E0108888180000F2
:101D4000000F112020110E0000380808C8380800C4
:101D50000000003F00000000007088080888700044
:101D6000001C222121221C0000E010080810E000C5
:101D70000000312222110F00000000C0C00000004E
:101D80000000003030000000000000800000000073
:101D9000000080600000000000008040201008006B
:101DA0000001020408102000404040404040400034
:101DB000040404040404040000081020408000000F
:101DC0000020100804020100007048080808F00014
:101DD0000000003036010000C030C828E810E000E4
:101DE0000718272423140B000000C038E00000006F
:101DF000203C23020227382008F8888888700000D9
:101E0000203F202020110E00C030080808083800AC
:101E1000071820202010080008F808080810E00023
:101E2000203F202020100F0008F88888E8081000C4
:101E3000203F20202320180008F88888E808100098
:101E4000203F200003000000C030080808380000D0
:101E500007182020221E020008F808000008F808D1
:101E6000203F210101213F20000808F80808000058
:101E70000020203F2020000000000808F80808008B
:101E8000C08080807F00000008F888C02818080003
:101E9000203F20012638200008F80800000000003C
:101EA000203F20202020300008F8F800F8F8080033
:101EB000203F003F003F200008F830C00008F8082D
:101EC000203F200007183F00E01008080810E0003D
:101ED0000F10202020100F0008F808080808F00054
:101EE000203F210101010000E01008080810E00077
:101EF0000F18242438504F0008F88888888870000C
:101F0000203F2000030C30200070880808083800AB
:101F10000038202121221C00180808F808081800A1
:101F20000000203F2000000008F808000008F80822
:101F3000001F202020201F000878880000C83808D3
:101F4000000007380E010000F80800F80008F8004B
:101F5000033C0700073C03000818688080681808E5
:101F600020302C03032C30200838C800C838080063
:101F70000000203F2000000010080808C8380800B2
:101F80002038262120201800000000FE0202020056
:101F90000000007F40404000000C30C00000000006
:101FA000000000010638C00000020202FE0000002E
:101FB000004040407F0000000000040202020400D4
:101FC0000000000000000000000000000000000011
:101FD00080808080808080800002020400000000F9
:101FE00000000000000000000000808080800000F1
:101FF0000019242222223F2008F8008080000000DF
:10200000003F112020110E000000008080800000A1
:10201000000E112020201100000000808088F800B0
:10202000000E112020103F200000808080800000E2
:10203000001F222222221300008080F08888881846
:102040000020203F20200000000080808080800051
:10205000006B94949493600008F8008080800000E6
:10206000203F210000203F200080989800000000C1
:102070000020203F202000000000008098980000F1
:1020800000C08080807F000008F800008080800011
:10209000203F24022D302000000808F80000000036
:1020A0000020203F202000008080808080808000F1
:1020B000203F20003F20003F808000808080000083
:1020C000203F210000203F20000080808080000011
:1020D000001F202020201F00808000808000000042
:1020E00080FFA12020110E00000000808080800071
:1020F000000E112020A0FF80808080008080800062
:1021000020203F212000010000008080808080008E
:102110000033242424241900008080E08080000003
:102120000000001F20200000808000000080800050
:10213000001F202020103F208080800000808080B1
:1021400000010E3008060100808000800080808041
:102150000F300C030C300F00008080008080800066
:102160000020312E0E312000808080000080808091
:1021700080818E7018060100008080808080800041
:102180000021302C2221300000000000807C02025F
:1021900000000000003F404000000000FF00000081
:1021A00000000000FF0000000002027C8000000030
:1021B0000040403F0000000000060101020204044C
:1021C0000000000000000000E821000800000020DE
:1021D00048000000F01500083022000848000020E8
:1021E000000400000016000800A24A0400000000DD
:1021F00000000000010203040607080900000000B7
:102200000000000000000000000000000000A040EE
:102210000000C03F0000003F000000000000000080
:1022200000000000000000000000000000000000AE
:0400000508000101ED
:00000001FF
