:020000040800F2
:100000004004002001010008DD1300089D100008D5
:10001000A911000809090008B11E0008000000002D
:10002000000000000000000000000000611900084E
:10003000190B000800000000BD170008891A00080D
:100040001B0100081B0100081B0100081B01000820
:100050001B0100081B0100081B0100081B01000810
:100060001B0100081B0100081B0100081B01000800
:100070001B0100081B0100081B0100081B010008F0
:100080001B0100081B0100081B0100081B010008E0
:100090001B0100081B0100081B0100081B010008D0
:1000A0001B0100081B0100081B0100081B010008C0
:1000B0001B0100081B0100081B0100081B010008B0
:1000C0001B0100081B0100081B0100081B010008A0
:1000D0001B0100081B0100081B0100081B01000890
:1000E0001B0100081B0100081B010008DFF80CD0F1
:1000F00000F0E8FB004800475D20000840040020B5
:100100000648804706480047FEE7FEE7FEE7FEE7B1
:10011000FEE7FEE7FEE7FEE7FEE7FEE7011B00085D
:10012000ED000008F0B480EA0102D40F4200B2EB07
:10013000410F02D20246084611464A0042D0C30D82
:10014000DDB2C1F3C752AD1A202D35DAC1F3160165
:1001500041F4000204B15242C5F1200602FA06F150
:100160002A411044B3EBD05F23D0C4B1012DA0EBE2
:10017000C35009DCF0BC4FF0004202EAC352DBB2CC
:1001800000F5000000F012BB400000F1807000EBB1
:10019000C350A0F1807040EAD170490009E04908DD
:1001A00041EAC071A0EBC35000F50000400800EB2D
:1001B000C350F0BC00F0F1BA6142012202EB4101F0
:1001C000001BF6E7F0BC704781F00041AAE780F021
:1001D0000040A7E780EA010210B502F000434000AA
:1001E00022D04A001FD0010E01EB1261C0F356006D
:1001F000C2F3560240F4000042F40002A0FB0220C9
:1002000000047F39140400D0401C50EA124001D48D
:100210004000491EC2B20C0604EBD010401C40083E
:10022000802A02D003E0002010BD20F00100002948
:1002300000DA0020184310BD30B480EA010202F059
:10024000004530F0004221F0004013D090B1C30DC2
:10025000D40DC2F31601C0F31600E41A41F40001F4
:1002600040F400027D34914201D3641C00E0490057
:10027000002C02DA30BC002070474FF4000000234D
:10028000914201D3891A034340084FEA4101F7D153
:1002900051B1914202D14FF0004105E002D24FF03E
:1002A000010101E06FF0010103EBC450284430BCB0
:1002B00000F073BA2DE9FE4F804681EA0300C00FBB
:1002C0000C46009021F0004123F00045B8EB0200FD
:1002D000A94105D24046214690461C460B4602469F
:1002E00023F00040104347D0270DC7F30A00C3F3A3
:1002F0000A510290401A019040286BDAC3F31300B0
:1003000040F4801B0098924620B10023D2EB030AF0
:1003100063EB0B0B01985946C0F14002504600F0C8
:100320001BFA06460D4650465946019A00F023FA3C
:1003300010EB08006141002487EA115284EAE77358
:100340001A4340D0009A62B3019A012A4FEA075239
:1003500015DC001B61EB02014FF0004202EA07527C
:10036000CDE90042001C41F5801132462B4600F0D9
:100370005AFA03B0BDE8F08F40462146F9E7001B6A
:1003800061EB0201001C41F5801300185B4120184D
:10039000A2F5001747EB030140EAD570B6196D418D
:1003A00011E06D084FEA360645EAC0754FEA07527C
:1003B000001B61EB0201001C41F5801149084FEA66
:1003C00030000019514132462B4603B0BDE8F04FD2
:1003D00000F01ABA0098012240000023D0EB02027C
:1003E00063EBE073009821464FEAE074B8EB00003D
:1003F00061EB0401E9E783F000435BE781F0004132
:1004000058E72DE9FE4F81EA030404F0004421F08F
:10041000004100944FF0000B23F0004350EA010428
:100420005ED052EA03045BD0C3F30A54C1F30A5509
:100430002C44A4F2F3340194A0FB0254C1F3130141
:1004400041F48011C3F3130343F4801301FB02440E
:1004500000FB034E840A970A44EA815447EA835713
:10046000A4FB076802958D0A05FB07854FEA932CCC
:1004700004FB0C542705029D4FEA065847EA16373D
:10048000B5EB08056EEB070C870E920E47EA811755
:1004900042EA8312A7FB0201B6EB0B0164EB0004F6
:1004A0002B0D43EA0C335E1844EB1C50DA465146E0
:1004B000E7FB0201C5F313044FEA0B3343EA14537D
:1004C0004FEA0432019C43EA0603A4F10C040294AF
:1004D000009CCDE900B400F0A6F903B0BDE8F08FB0
:1004E00000200146F9E72DE9F04D81EA030404F00C
:1004F000004B21F0004514464FF0000A23F0004164
:1005000050EA050220D054EA01021DD0C5F30A5773
:100510000246C5F31303C1F31300C1F30A5640F4B6
:10052000801543F48013A7EB0608101BD64608F28B
:10053000FD3873EB050002D308F1010801E09218C1
:100540005B41B8F1000F03DA00200146BDE8F08DF1
:1005500000204FF48011064684460EE0171B73EB13
:10056000050705D3121B63EB050306434CEA010C98
:1005700049084FEA300092185B4150EA0107EDD17B
:1005800052EA030012D082EA040083EA050108431C
:1005900005D0101BAB4106D20122002306E0002249
:1005A0004FF0004302E06FF0010253101AEB060017
:1005B0004CEB085110EB0A0041EB0B01BDE8F04D8C
:1005C00000F022B90EB5C10F80EAE0700844CA07F6
:1005D000002140F233438DE80E000A460B4600F03E
:1005E00022F903B000BD0EB540F233410291002163
:1005F000CDE900110A460B4600F015F903B000BD25
:1006000000F0004220F00040C10DC0F3160040F49D
:1006100000007F2901DA00207047962903DCC1F130
:100620009601C84001E096398840002AF4D0404243
:10063000704720F00040C10DC0F3160040F40000E8
:100640007F2901DA00207047962903DCC1F1960169
:10065000C840704796398840704700F0004230F03B
:1006600000400AD0C10D01F56071C0F3160042EAE6
:100670000151C208400711437047002001467047EE
:1006800030B5041E71F1000404DB4FF00044404219
:1006900064EB0101141E73F1000405DB1C464FF0EE
:1006A0000043524263EB04038B4208BF824230BDD9
:1006B00030B5041E71F1000404DB4FF000444042E9
:1006C00064EB0101141E73F1000405DB1C464FF0BE
:1006D0000043524263EB0403994208BF904230BD8D
:1006E00001F0004330B421F0004150EA010206D08D
:1006F0000A0DA2F56072C1F31301002A02DC30BCBE
:1007000000207047440F44EAC104C100E01830BC27
:1007100000EBC25000F041B8002801DBC0F10040FE
:10072000002901DBC1F100418842704730B50B461A
:10073000014600202022012409E021FA02F59D4211
:1007400005D303FA02F5491B04FA02F52844151EE5
:10075000A2F10102F1DC30BD202A04DB203A00FACC
:1007600002F1002070479140C2F1200320FA03F308
:10077000194390407047202A06DBCB17203A41FAF4
:1007800002F043EAE07306E041FA02F3D040C2F11E
:10079000200291400843194670470029A8BF7047BE
:1007A000401C490008BF20F00100704710B4B0FAA7
:1007B00080FC00FA0CF050EA010404BF10BC704742
:1007C00049B1CCF1200421FA04F411FA0CF118BF5C
:1007D000012121430843A3EB0C01CB1D4FEA00612B
:1007E0004FEA102042BF002010BC704700EBC350FE
:1007F00010440029A4BF10BC7047401C490008BF2A
:1008000020F0010010BC704710B5141E73F10004F5
:1008100008DA401C41F1000192185B411A4301D1F2
:1008200020F0010010BD2DE9F04D92469B4611B11C
:10083000B1FA81F202E0B0FA80F220329046FFF77E
:100840008BFF04460F4640EA0A0041EA0B0153467B
:100850005A46084313D0114653EA010019D0C8F193
:100860004002504600F040F805460E4650465946B4
:100870004246FFF771FF084305D0012004E02046FF
:100880003946BDE8F08D0020054346EAE0762C436A
:1008900037430A986305E40AA0EB08000022FD0A2A
:1008A00044EA47540A3002D500200146E9E7010531
:1008B00010196941DDE9084500196941BDE8F04DAD
:1008C000A2E70000064C074D06E0E06840F0010397
:1008D00094E8070098471034AC42F6D3FFF70AFCBF
:1008E000282C0008482C0008202A04DB203A21FA92
:1008F00002F00021704721FA02F3D040C2F1200239
:10090000914008431946704700BFFEE708B5012132
:10091000092000F0ABFF0121094800F093FA1020F4
:100920008DF80300ADF8000003208DF80200694641
:10093000044800F0FBF91021024800F0D6FA08BD87
:1009400000023000000C014010B51021014800F0F9
:10095000CCFA10BD000C014010B51021014800F088
:10096000C2FA10BD000C014010B500F063F8CC20B5
:1009700000F082F8442000F07FF810BD10B501218E
:10098000082000F073FF00F0B5F82021014800F0C6
:10099000ACFA10BD000C014070B5002500241FE02A
:1009A00000F0A8F82021104800F09DFA022000F085
:1009B000C1F820210C4800F098FA00F089F80A20CC
:1009C00000F0B8F82021084800F084FA18B101209E
:1009D000A0402843C5B2322000F0ACF8601CC4B27D
:1009E000082CDDDB284670BD000C01402DE9F047E6
:1009F00000F020F8CC2000F03FF8BE2000F03CF8DA
:100A0000FFF7CAFF0446FFF7C7FF814644EA092003
:100A10000FFA80FA5046FFF7D5FD07460022044B37
:100A2000FFF7EFFC0546FFF75BFEBDE8F08700002F
:100A30000000B03F10B5002400F05CF820210D4804
:100A400000F051FA4FF4FA7000F074F820210948D0
:100A500000F04BFA1E2000F06DF800F039F820216C
:100A6000044800F037FA04464FF4C87000F062F80A
:100A7000204610BD000C014070B5044600F03AF865
:100A800000251FE02021114800F02DFA022000F07F
:100A900051F804F0010020B120210C4800F025FAA3
:100AA00003E02021094800F01EFA3C2000F042F843
:100AB0002021064800F019FA022000F03BF86410EB
:100AC000681CC5B2082DDDDB70BD0000000C0140C4
:100AD00008B548208DF803002020ADF80000032061
:100AE0008DF802006946024800F020F908BD0000B8
:100AF000000C014008B510208DF803002020ADF84F
:100B0000000003208DF802006946024800F00EF94B
:100B100008BD0000000C0140704710B5044603E01A
:100B20004FF47A7000F006F8201EA4F10104F7D10A
:100B300010BD0000064A1268064BB2FBF3F202FB3E
:100B400000F100BF0A1EA1F10101FBD170470000B6
:100B50000000002000127A0000B585B0012144F2A7
:100B6000040000F083FE18208DF813004FF400708D
:100B7000ADF8100003208DF8120004A9134800F00E
:100B8000D5F804208DF813000002ADF8100004A978
:100B90000E4800F0CBF84FF4E13000900020ADF8A3
:100BA0000C000C20ADF80A000020ADF80800ADF8EC
:100BB0000600ADF804006946054801F009F9012175
:100BC000034801F0EBF805B000BD0000000801404B
:100BD0000038014010B504460BE02178074801F0C9
:100BE00063F900BF8021054801F0E4F80028F9D03E
:100BF000641C20780028F0D110BD000000380140AE
:100C00002DE9F05F0421374800F064F9012800D194
:100C100000E0002081460821324800F05BF90128FD
:100C200000D100E0002005464FF400612D4800F09F
:100C300051F9012800D100E0002006464FF4805110
:100C4000284800F047F9012800D100E000200746BD
:100C50004FF40041244800F03DF9012800D100E0A4
:100C60000020824609EB050030443844504400F02F
:100C7000FF08B8F1000F02D10020BDE8F09F012E5F
:100C800003D0012D03D1012F01D10320F5E732203C
:100C900009FB00F005EB850100EBC100C6EB061176
:100CA00000EB410007EB870100EB81000AEB8A01B2
:100CB00000EB41001FFA80FB9BFBF8F0C4B22D2C27
:100CC00001DB0520D9E7232C01DB0420D5E7192C13
:100CD00001DB0320D1E70F2C01DB0220CDE701204F
:100CE000CBE7000000080140000C014008B50121DD
:100CF0000C2000F0BBFD28208DF8030003208DF8A8
:100D0000020041F60C00ADF800006946054800F00D
:100D10000DF84FF40040ADF800006946024800F0BD
:100D200005F808BD00080140000C01402DE9F04124
:100D3000024600250026002000230024002791F809
:100D400003C00CF00F0591F803C00CF0100CBCF1BF
:100D5000000F03D091F802C04CEA050591F800C0DD
:100D6000BCF1000F31D0146800202BE04FF0010CD3
:100D70000CFA00F3B1F800C00CEA03069E4220D141
:100D800083004FF00F0C0CFA03F7BC4305FA03FC89
:100D90004CEA040491F803C0BCF1280F06D14FF0CF
:100DA000010C0CFA00FCC2F814C00AE091F803C070
:100DB000BCF1480F05D14FF0010C0CFA00FCC2F851
:100DC00010C0401C0828D1D31460B1F800C0BCF199
:100DD000FF0F34DD546800202EE000F1080C4FF0C6
:100DE000010808FA0CF3B1F800C00CEA03069E42B1
:100DF00021D183004FF00F0C0CFA03F7BC4305FA26
:100E000003FC4CEA040491F803C0BCF1280F05D19F
:100E100000F1080C08FA0CF8C2F8148091F803C02D
:100E2000BCF1480F07D100F1080C4FF0010808FA97
:100E30000CF8C2F81080401C0828CED35460BDE8DE
:100E4000F0810000F0B50A460023002400210025AF
:100E500000F00046B6F1004F02D11D4EF16901E0ED
:100E60001B4E7168C0F3034583B200F44016B6F51B
:100E7000401F08D121F07061154E766826F070662B
:100E8000134F7E6012E000F48016B6F5801F06D185
:100E9000032606FA05F4A14341F0706106E0460D11
:100EA000360103FA06F6B14341F0706122B1460DF6
:100EB000360103FA06F6314300F00046B6F1004F62
:100EC00002D1034EF16101E0014E7160F0BD0000FE
:100ED000000001400246002093680B400BB1012046
:100EE00000E00020704741617047016170470AB11E
:100EF000016100E0416170472DE9F04100F020F808
:100F000007460FB940F2E7370520FFF706FE00F06D
:100F100017F804460CB940F2E7340520FFF7FDFD51
:100F200000F00EF805460DB940F2E7353E46B442F2
:100F300000DD2646B54200DD2E463046BDE8F08194
:100F40002DE9F04700244FF480713048FFF7CDFFC2
:100F50000F20FFF7EFFD4FF480712C48FFF7C3FF20
:100F600000BF0CE0601C84B20120FFF7E3FD42F2F9
:100F70001070844203DD40F2E730BDE8F0874FF4A3
:100F800000712248FFF7A6FF0028EBD0002120487F
:100F900000F0B0FE01211E4800F0E2FD0DE01C480B
:100FA00000F0F9FD4CF25031884206DD002118486E
:100FB00000F0D6FD40F2E730DFE74FF40071134850
:100FC000FFF788FF0128EAD00021114800F0C8FD92
:100FD0000F4800F0E0FD82465046FFF704FB07464D
:100FE00000220C4BFFF77FFA0546FFF779FB81469D
:100FF00009494846FFF790FB02D240F2E730BCE7D0
:101000004846FFF716FB80B2B7E70000000C01402E
:101010000008004000004D4000C079441FB5012188
:10102000082000F023FC0121042000F00FFC102018
:101030008DF80F000001ADF80C0003208DF80E00B4
:1010400003A91448FFF772FE28208DF80F004FF413
:101050000070ADF80C0003A90E48FFF767FE4FF4CF
:1010600080710C48FFF73FFF0020ADF80600ADF897
:1010700002004FF6FF70ADF804004720ADF8000005
:101080006946054800F038FE0021034800F068FD7D
:101090001FBD0000000C01400008004000BFFEE73B
:1010A00010B54FF480510448FFF714FF012800D118
:1010B00010BD0020FCE70000000C014010B54FF40B
:1010C00080410448FFF706FF012800D110BD002031
:1010D000FCE70000000C014008B50121082000F0E9
:1010E000C5FB48208DF8030003208DF802004FF463
:1010F000E040ADF8000069460148FFF717FE08BD63
:10110000000C014010B54FF400410248FFF7EBFE20
:1011100010BD00000008014010B54FF40041024826
:10112000FFF7E3FE10BD00000008014010B50821E4
:101130000148FFF7D8FE10BD000C014010B5082192
:101140000148FFF7D2FE10BD000C014008B5012197
:101150000D2000F08BFB01211048FFF773FE1020DB
:101160008DF8030003208DF802004FF40040ADF825
:10117000000069460A48FFF7D9FD0820ADF80000D5
:1011800069460848FFF7D2FD4FF400410448FFF7D5
:10119000AAFE08210348FFF7A6FE08BD00023000A2
:1011A00000080140000C014000BFFEE700B589B017
:1011B00001210C2000F05AFB0121022000F046FB27
:1011C00010208DF8230003208DF822003020ADF888
:1011D000200008A91F48FFF7A9FD0320ADF8200053
:1011E00008A91D48FFF7A2FD18208DF82300C02094
:1011F000ADF8200008A91748FFF798FD40F2E73046
:10120000ADF818004720ADF814000020ADF81A0022
:10121000ADF8160005A9114800F06EFD01A800F018
:101220005BFD6020ADF804000120ADF80600002051
:10123000ADF80C00ADF80A0001A9084800F0AEFCBA
:1012400001A9064800F0F6FC0121044800F088FCE2
:1012500009B000BD00080140000C0140000400403E
:1012600010B50446002C0CDB10210D48FFF73DFEA5
:1012700020210B48FFF737FEA1B20A4800F036FDE7
:101280000CE010210648FFF72EFE20210448FFF74E
:101290002CFE604281B2034800F028FD10BD000022
:1012A000000801400004004010B50446002C0CDB8F
:1012B00001210D48FFF719FE02210B48FFF713FE2D
:1012C000A1B20A4800F014FD0CE001210648FFF726
:1012D0000AFE02210448FFF708FE604281B203487B
:1012E00000F006FD10BD0000000C014000040040AD
:1012F00070B505460C46684205B22846FFF7B0FFB8
:101300002046FFF7D1FF70BD70B504460D4650264C
:1013100054E03048B0F90000A0420DDA2D480088B2
:10132000304400B22B4908800846B0F90000A042C2
:1013300014DD0846048011E02648B0F90000A04200
:101340000CDD24480088801B00B222490880084632
:10135000B0F90000A04201DA084604801E48B0F946
:101360000000A8420DDA1C480088304400B21A4937
:1013700008800846B0F90000A84214DD0846058040
:1013800011E01548B0F90000A8420CDD12480088B1
:10139000801B00B2104908800846B0F90000A8423E
:1013A00001DA084605800C48B0F900100948B0F988
:1013B0000000FFF79DFF0520FFF7AFFB0548B0F9E0
:1013C0000000A042A5D10448B0F90000A842A0D175
:1013D00070BD00003600002038000020704770B556
:1013E00000240EE00021204600F0F3F8002504E080
:1013F000002000F07FF9681CC5B2802DF8DB601C6E
:10140000C4B2082CEEDB70BD08B50121082000F045
:101410002DFA10208DF8030003208DF802004FF400
:101420008060ADF8000069460A48FFF77FFC4FF482
:101430000060ADF8000069460648FFF777FC01221E
:1014400091020448FFF753FD0122D1020148FFF742
:101450004EFD08BD000C014070B50546002419E0A2
:1014600080202041284008B1012000E000200246F1
:101470004FF400610E48FFF73AFD012291020C483B
:10148000FFF735FD00224FF480610948FFF72FFD7B
:10149000601CC4B2082CE3DB012291020448FFF770
:1014A00026FD00224FF480610148FFF720FD70BD4A
:1014B000000C014010B50122D1020A48FFF717FDC8
:1014C000012291020748FFF712FD00224FF400614C
:1014D0000448FFF70CFD00224FF480610148FFF73C
:1014E00006FD10BD000C014010B500224FF4006154
:1014F0000648FFF7FCFC012291020448FFF7F7FCC5
:101500000122D1020148FFF7F2FC10BD000C01409E
:1015100070B5002406E0002500E06D1CB5F57A7F6B
:10152000FBD3641CB4F57A7FF5D3FFF76DFFAE20D3
:1015300000F0D0F8D52000F0CDF8802000F0CAF8F7
:10154000A82000F0C7F83F2000F0C4F8D32000F036
:10155000C1F8002000F0BEF8402000F0BBF8A12048
:1015600000F0B8F8C82000F0B5F8DA2000F0B2F8C2
:10157000122000F0AFF8812000F0ACF8CF2000F08E
:10158000A9F8D92000F0A6F8F12000F0A3F8DB209C
:1015900000F0A0F8302000F09DF8A42000F09AF8A8
:1015A000A62000F097F88D2000F094F8142000F0A9
:1015B00091F8AF2000F08EF8FFF711FF70BD10B565
:1015C0000246012000E050430B1EA1F10101FAD1B7
:1015D00010BD70B505460C4645F0B00000F07AF835
:1015E000102141EA141000F075F804F00F0000F02B
:1015F00071F870BD2DE9F04105460E461746721E82
:10160000D206110E6A1E5206100EFFF7E2FF0024EA
:1016100009E0A7F12001134A02EB0111085D00F077
:1016200069F8601CC4B2082CF3DB721ED206110EDE
:101630006A1E012303EB4202D0B2FFF7CAFF002467
:101640000BE0A7F12001074A02EB011204F10801A7
:10165000505C00F04FF8601CC4B2082CF1DBBDE810
:10166000F0810000382600082DE9F04780460E463C
:1016700017461D46002415E0281B411E0A20FFF7CF
:101680009EFFB7FBF0F00A21B0FBF1F201FB120064
:1016900000F130093019C1B24A464046FFF7AAFFAF
:1016A000601CC4B2AC42E7DBBDE8F0872DE9F04135
:1016B00007460E461546002407E02A5D3019C1B2E0
:1016C0003846FFF797FF601CC4B2285D0028F4D1AC
:1016D000BDE8F08110B50446FFF7ECFE7820FFF777
:1016E000BBFE0020FFF7B8FE2046FFF7B5FEFFF770
:1016F000FBFE10BD10B50446FFF7DCFE7820FFF7B7
:10170000ABFE4020FFF7A8FE2046FFF7A5FEFFF73F
:10171000EBFE10BD00B589B0012140F6040000F0D9
:10172000A5F818208DF823004FF48070ADF8200044
:1017300003208DF8220008A91948FFF7F7FA0020C6
:10174000ADF81A00ADF8160044F61F60ADF81800A9
:101750004720ADF8140000208DF81C0005A91148A1
:1017600000F0CAFA01A800F0B7FA6020ADF8040052
:101770000020ADF80C000120ADF806000020ADF807
:101780000A0001A9074800F009FA0121054800F004
:10179000F3F90121034800F0E3F909B000BD0000AE
:1017A00000080140002C014010B5044621460248C3
:1017B00000F09CFA10BD0000002C014070470000B2
:1017C00010B50948007800B910BD4FF40051074822
:1017D000FFF789FB40F2DC50FFF79FF90020024938
:1017E000087000BFF0E70000320000200010014048
:1017F00008B50121102000F039F810208DF8030001
:101800004002ADF8000003208DF80200694606484A
:10181000FFF78CFA4FF400510348FFF764FB0020F8
:101820000249087008BD000000100140320000208D
:1018300010B54FF400510348FFF757FB0120024950
:10184000087010BD001001403200002029B1064A86
:10185000D2690243044BDA6104E0034AD26982434D
:10186000014BDA61704700000010024029B1064ABE
:1018700092690243044B9A6104E0034A92698243ED
:10188000014B9A61704700000010024030B5002102
:101890000022002400232D4D6D6805F00C0121B1BC
:1018A000042905D0082923D105E0294D056022E04F
:1018B000274D05601FE0254D6D6805F47012234D1E
:1018C0006D6805F48034022505EB92421CB9214D68
:1018D000554305600BE01D4D6D6805F400351DB1E5
:1018E0001C4D5543056002E0194D5543056002E06B
:1018F000174D056000BF00BF144D6D6805F0F00185
:101900000909154D6B5C0568DD4045600F4D6D683C
:1019100005F4E061090A104D6B5C4568DD408560A7
:101920000A4D6D6805F46051C90A0B4D6B5C456842
:10193000DD40C560054D6D6805F44041890B074DDC
:101940006B5CC568B5FBF3F5056130BD0010024066
:1019500000127A0000093D0014000020240000203D
:10196000704700002DE9F04104460A492046FEF781
:1019700063FC80460849FEF72DFC07460749FEF741
:10198000D1FB0646FEF755FE85B22846FFF70CFF51
:10199000BDE8F081000034430000FA440000FA433F
:1019A00010B500F001F810BD0CB5002001900090BA
:1019B0003348006840F480303149086000BF304847
:1019C000006800F4003000900198401C01900098DD
:1019D00018B90198B0F5A06FF1D12948006800F45A
:1019E000003010B10120009001E00020009000982C
:1019F000012843D12348006840F0100021490860C5
:101A00000846006820F0030008600846006840F0BF
:101A1000020008601A484068194948600846406852
:101A200048600846406840F4806048600846406866
:101A300020F47C1048600846406840F4E810486094
:101A40000846006840F08070086000BF0C480068DD
:101A500000F000700028F9D00948406820F0030029
:101A6000074948600846406840F00200486000BFEF
:101A70000348406800F00C000828F9D10CBD0000B4
:101A8000001002400020024017480088401C164900
:101A9000088016480088401C1449088014480088B3
:101AA000401C13490880104800880A2805DB0020E4
:101AB0000D49088001200F4908700C4800886428EF
:101AC00005DB00200949088001200B4908700848FF
:101AD0000088B0F5FA6F05DB002005490880012079
:101AE00006490870704700002C0000202E000020DE
:101AF0003000002028000020290000202A000020BB
:101B000010B51348006840F001001149086008460C
:101B10004068104908400E494860084600680E4970
:101B200008400B4908600846006820F480200860DF
:101B30000846406820F4FE0048604FF41F008860AB
:101B4000FFF72EFF4FF000600449086010BD000051
:101B5000001002400000FFF8FFFFF6FE08ED00E075
:101B600021B1028842F00102028004E002884FF6AF
:101B7000FE731A400280704731B1B0F8442042F43D
:101B80000042A0F8442005E0B0F84420C2F30E0261
:101B9000A0F8442070470146888C704770B5002437
:101BA00000220023058C4FF6FE7635400584028C1A
:101BB0008388048B4FF68F752C40B51E2C400D8802
:101BC0002C43751E2A400D892A434D882A43144D03
:101BD000A8420BD0134DA84208D0134DA84205D0FF
:101BE000124DA84202D0124DA84213D14FF6F775FC
:101BF0002A404D892A434FF6FB752A408D882A4397
:101C00004FF6FF652B404FF6FF552B408D892B4338
:101C1000CD892B4383800483CD888586028470BD63
:101C2000002C0140003401400040014000440140CC
:101C30000048014070B5002400220023058C4FF6B7
:101C4000EF7635400584028C8388048B48F6FF7557
:101C50002C404FF6FF452C400D884FF6FF7606EAE4
:101C600005252C434FF6DF752A400D8906EA051538
:101C70002A434D8806EA05152A43154DA84202D08D
:101C8000144DA8421DD14FF67F752A404D894FF65D
:101C9000FF7606EA05152A434FF6BF752A408D8860
:101CA00006EA05152A434FF6FF352B404FF2FF7524
:101CB0002B408D8906EA85052B43CD8906EA8505EB
:101CC0002B4383800483CD880587028470BD000088
:101CD000002C0140003401400021018041808180BE
:101CE000C180018141818181C181704781867047B6
:101CF0000187704781847047002202881D4B9842FB
:101D00000ED01D4B98420BD0B0F1804F08D01B4B2A
:101D1000984205D01A4B984202D01A4B984204D1EF
:101D20004FF68F731A404B881A43174B984207D0CF
:101D3000164B984204D04FF6FF431A40CB881A4303
:101D400002808B8883850B8803850A4B98420BD0D1
:101D5000094B984208D00E4B984205D00D4B984243
:101D600002D00D4B984201D10B7A03860123838266
:101D700070470000002C0140003401400004004086
:101D800000080040000C004000100040001400401B
:101D900000400140004401400048014021B18289D7
:101DA00042F40052828104E082894DF6FF731A40AA
:101DB0008281704702460020B1F5007F00D100BF4C
:101DC00013880B400BB1012000E000207047000099
:101DD0002DE9F04786B005460E460024A24600BF16
:101DE000A1460027B08900B100BF2F462C8A4CF6CF
:101DF000FF700440F08804432C82AC894EF6F31047
:101E00000440B08831890843718908430443AC8198
:101E1000AC8A4FF6FF400440B0890443AC8201A86D
:101E2000FFF734FD1F48874202D1DDF810A001E022
:101E3000DDF80CA0A88900F4004040B10AEBCA000C
:101E400000EB0A1031684900B0FBF1F807E00AEB3B
:101E5000CA0000EB0A1031688900B0FBF1F8642079
:101E6000B8FBF0F004012009642101FB1089A88966
:101E700000F4004040B1322000EBC900B0FBF1F0AB
:101E800000F00700044308E0322000EB0910642151
:101E9000B0FBF1F000F00F0004432C8106B0BDE868
:101EA000F087000000380140C1F3080282807047CB
:101EB00000BFFEE70FB4084B10B504A902AA0398AF
:101EC00000F01CF8044602A9002000F0C1F82046EA
:101ED00010BC5DF814FB00005120000802E008C8A7
:101EE000121F08C1002AFAD170477047002001E094
:101EF00001C1121F002AFBD1704700002DE9FF4FDE
:101F000089B09B460446002506E025280BD05A469A
:101F10000B999047641C6D1C20780028F5D10DB0FA
:101F20002846BDE8F08F0027B8460122474900E067
:101F3000074314F8013F203B02FA03F00842F7D1AF
:101F400020782E2819D114F8010F47F004072A2809
:101F50000ED06FF02F022078A0F1300109290CD8A3
:101F600008EB880102EB410100EB0108641CF2E779
:101F70000A98641C50F8048B0A9020780028CED070
:101F8000642808D0692806D075281ED05A460B99B7
:101F900090476D1C58E00A994FF00A0901C90A914F
:101FA000002802DA40422D2102E0390504D52B2118
:101FB0008DF82010012103E0F90704D02021F7E774
:101FC0008A4608AE0DE00021FAE70A994FF00A09A7
:101FD00001C90A91F7E74946FEF7A8FB303106F838
:101FE000011D0028F7D1ADEB060000F120097807AC
:101FF00001D44FF00108C84502DDA8EB090000E05C
:1020000000208046002706E008A85A46C05D0B99CC
:1020100090476D1C7F1C5745F6DB04E030205A4684
:102020000B9990476D1CB8F10001A8F10108F5DC8F
:1020300005E016F8010B5A460B9990476D1CB9F153
:102040000001A9F10109F4DC641C65E7092801001D
:102050000A68531C0B6010707047000094B0FFF7C3
:1020600057FAFFF7A3F8FFF771F8FEF7D7FFFFF76E
:1020700051FBFEF73BFEFFF7BBFBFEF747FCFEF70D
:102080007DFCFFF729F8FEF767FDFE48FFF76AFCC5
:10209000FEF75AFCFFF794FBFBA201210846FFF76D
:1020A00005FB40F2DC50FEF738FDFFF798F9FBA284
:1020B00001210320FFF7FAFA0025AB460020139018
:1020C000804681461290119000261090F7480F909C
:1020D000002700200E909AE2109828B9FEF744FCE1
:1020E000012010900026A6E0B6F5487FFBDB72B613
:1020F000FEF77CFC824662B65046FEF7AEFA00223E
:10210000EB4BCDE90C01FEF7D3FA7DD25046FEF73A
:10211000A4FA0022E74BCDE90C01FEF7B1FAF4D2A4
:102120005046FEF79AFA0022E34BCDE90C01FEF788
:10213000A7FA7DD00F98FEF790FA0022DF4BCDE989
:102140000A01FEF79DFA02D1CDF83CA03CE05046D2
:102150000F99FEF739F80990FEF77FFA0022D84B65
:10216000CDE90A01FEF78CFA2ED251460F98FEF700
:102170002BF80990FEF771FA0022D14BCDE90A0144
:10218000FEF77EFA20D25046FEF767FA4FF0333260
:10219000CC4BCDE90401FEF734F9CDE908010F98E5
:1021A000FEF75BFA4FF06632C74BCDE90401FEF74C
:1021B00028F9CDE90601DDE90823FEF77BF8CDE932
:1021C0000A01FEF78DFA0F900F98FEF719FA0D909D
:1021D000BE490F98FDF7FEFF0B90FEF711FA0A219A
:1021E00090FBF1F201FB12000C90B9A20121032037
:1021F000FFF75CFABBA201210320FFF757FA022385
:10220000072103200D9A00E012E0FFF72DFA2E229D
:1022100009210320FFF7EEF901230A2103200C9A7C
:10222000FFF722FAB1A20B210320FFF73FFA00BF0C
:102230000020109000BFB7F57A7F2ADB0F98FEF7D9
:102240000CFA00229D4BCDE90C01FEF719FA20D0C3
:102250000F98FEF7D5F903909C490F98FDF7BAFF48
:102260000290FEF7CDF90A2190FBF1F201FB120A70
:102270009F49097811985346CDE9001502909DA118
:1022800004A8039AFFF716FE04A8FEF7A3FC002794
:1022900000BFFEF7B5FC044634B101209449087034
:1022A00000201290119414E09148007801280CD17C
:1022B0001298401C80B212901298322809DD00203A
:1022C0008B4908701290119003E000208849087033
:1022D00011908748007800287DD1FEF735FBFFF785
:1022E0006FFAFEF719FFFEF721FF86A201210846CB
:1022F000FFF7DCF96348FFF735FB1420FEF70DFC10
:10230000FEF7FAFD0546FEF7CBFE8046FEF7D6FE49
:10231000814680A201210220FFF7C8F940F2E73090
:10232000854205D17FA203210220FFF7BFF905E016
:1023300003232A4619460220FFF796F90123424655
:102340000A210220FFF790F901234A460E210220BC
:10235000FFF78AF9232D0DDDB8F1000F0AD1B9F18D
:10236000000F07D14FF4FA710846FEF7CDFF0020A9
:102370000E9042E1192D0FDD232D0DDCB8F1000F79
:102380000AD1B9F1000F07D14FF496710846FEF754
:10239000BBFF00200E9030E100210846FEF7B4FF9D
:1023A000C820FEF7BAFB0E98401CC0B20E900E98E3
:1023B000032820DB5CA201210846FFF777F95E497C
:1023C0000846FEF7A1FF4FF41670FEF7A6FB5A4928
:1023D0006439484200E0BFE0FEF796FF4FF44870D2
:1023E000FEF79BFB00200E9006F5C86086B207F54D
:1023F000C86087B201E15148FFF7B4FA4FF4967014
:10240000FEF78BFBFEF778FD13904D48FFF7AAFA15
:102410004FF49670FEF781FBFEF76EFD8346194878
:10242000FFF7A0FA4FF49670FEF777FBB9F1010FB2
:1024300002D01398584510DC3F490846FEF764FF68
:102440004FF4C870FEF769FB4FF4E1714842FEF7A4
:102450005BFFFA20FEF761FB77E0B8F1010F02D0D5
:102460001398584571DD34490846FEF74DFF4FF487
:10247000C870FEF752FB304932394842FEF744FF3C
:10248000FA2060E00000B44253797374656D204215
:102490006F6F74696E672E2E0000000054656D70BA
:1024A0003A202D2D2E2D2043000000000000C8C230
:1024B0000000F03F0080514000405540000059C0EE
:1024C00000002E403333D33F6666E63F00002041D4
:1024D00054656D703A2020202020202020202020CC
:1024E0000000000054656D703A2000002043000099
:1024F0003400002025642E25642C25642C25642CB2
:1025000025640A004D6F64653A20506174726F6CE7
:1025100020202000443A20202020204C3A20205225
:102520003A2000004D4158004D6F64653A204553F4
:10253000434150452120200070FEFFFF000034423F
:102540000000074301E0FEF7E8FA06F2D66086B223
:1025500007F2D66087B250E02D48007801284CD1B0
:10256000FEF7D0FDFEF7EAFDFEF7F6F929A20121FC
:102570000846FFF79BF82BA201210220FFF796F8EF
:10258000012C07D14FF4E1714842FEF7BDFEFFF781
:1025900017F929E0022C06D1C8214842FEF7B4FE03
:1025A000FFF70EF920E0052C06D122494842FEF73C
:1025B000ABFEFFF705F917E0042C07D16FF0C70158
:1025C000C820FEF7A1FEFFF7FBF80DE0032C06D1B3
:1025D00000210846FEF798FEFFF72AF904E01CB92F
:1025E00000210846FEF790FE3220FEF796FA06F12B
:1025F000320086B207F1320087B21420FEF78DFA5E
:1026000006F1140086B207F1140087B200BF63E53B
:10261000340000204D6F64653A2046495245212020
:1026200020202000457874696E6775697368696E4B
:10263000672E00003EFEFFFF0000000000000000CB
:102640000000000000000000000000F80000000092
:10265000000000333000000000100C06100C0600D3
:10266000000000000000000040C07840C07840003A
:10267000043F04043F040400007088FC083000009C
:10268000001820FF211E0000F008F000E0180000F4
:1026900000211C031E211E0000F0088870000000AD
:1026A0001E2123241927211010160E0000000000FF
:1026B0000000000000000000000000E0180402001C
:1026C000000000071820400000020418E00000008D
:1026D0000040201807000000404080F0804040008B
:1026E0000202010F01020200000000F000000000E1
:1026F0000101011F010101000000000000000000B5
:1027000080B0700000000000000000000000000029
:1027100000010101010101010000000000000000B2
:10272000003030000000000000000000806018044D
:10273000006018060100000000E010080810E0002A
:10274000000F102020100F00001010F800000000F3
:102750000020203F2020000000700808088870003A
:1027600000302824222130000030088888483000BA
:102770000018202020110E000000C02010F80000DA
:1027800000070424243F240000F808888808080073
:102790000019212020110E0000E010888818000088
:1027A000000F112020110E0000380808C83808005A
:1027B0000000003F000000000070880808887000DA
:1027C000001C222121221C0000E010080810E0005B
:1027D0000000312222110F00000000C0C0000000E4
:1027E0000000003030000000000000800000000009
:1027F0000000806000000000000080402010080001
:1028000000010204081020004040404040404000C9
:1028100004040404040404000008102040800000A4
:102820000020100804020100007048080808F000A9
:102830000000003036010000C030C828E810E00079
:102840000718272423140B000000C038E000000004
:10285000203C23020227382008F88888887000006E
:10286000203F202020110E00C03008080808380042
:10287000071820202010080008F808080810E000B9
:10288000203F202020100F0008F88888E80810005A
:10289000203F20202320180008F88888E80810002E
:1028A000203F200003000000C03008080838000066
:1028B00007182020221E020008F808000008F80867
:1028C000203F210101213F20000808F808080000EE
:1028D0000020203F2020000000000808F808080021
:1028E000C08080807F00000008F888C02818080099
:1028F000203F20012638200008F8080000000000D2
:10290000203F20202020300008F8F800F8F80800C8
:10291000203F003F003F200008F830C00008F808C2
:10292000203F200007183F00E01008080810E000D2
:102930000F10202020100F0008F808080808F000E9
:10294000203F210101010000E01008080810E0000C
:102950000F18242438504F0008F8888888887000A1
:10296000203F2000030C3020007088080808380041
:102970000038202121221C00180808F80808180037
:102980000000203F2000000008F808000008F808B8
:10299000001F202020201F000878880000C8380869
:1029A000000007380E010000F80800F80008F800E1
:1029B000033C0700073C030008186880806818087B
:1029C00020302C03032C30200838C800C8380800F9
:1029D0000000203F2000000010080808C838080048
:1029E0002038262120201800000000FE02020200EC
:1029F0000000007F40404000000C30C0000000009C
:102A0000000000010638C00000020202FE000000C3
:102A1000004040407F000000000004020202040069
:102A200000000000000000000000000000000000A6
:102A3000808080808080808000020204000000008E
:102A40000000000000000000000080808080000086
:102A50000019242222223F2008F800808000000074
:102A6000003F112020110E00000000808080000037
:102A7000000E112020201100000000808088F80046
:102A8000000E112020103F20000080808080000078
:102A9000001F222222221300008080F088888818DC
:102AA0000020203F202000000000808080808000E7
:102AB000006B94949493600008F80080808000007C
:102AC000203F210000203F20008098980000000057
:102AD0000020203F20200000000000809898000087
:102AE00000C08080807F000008F8000080808000A7
:102AF000203F24022D302000000808F800000000CC
:102B00000020203F20200000808080808080800086
:102B1000203F20003F20003F808000808080000018
:102B2000203F210000203F200000808080800000A6
:102B3000001F202020201F008080008080000000D7
:102B400080FFA12020110E00000000808080800006
:102B5000000E112020A0FF808080800080808000F7
:102B600020203F2120000100000080808080800024
:102B70000033242424241900008080E08080000099
:102B80000000001F202000008080000000808000E6
:102B9000001F202020103F20808080000080808047
:102BA00000010E30080601008080008000808080D7
:102BB0000F300C030C300F000080800080808000FC
:102BC0000020312E0E312000808080000080808027
:102BD00080818E70180601000080808080808000D7
:102BE0000021302C2221300000000000807C0202F5
:102BF00000000000003F404000000000FF00000017
:102C000000000000FF0000000002027C80000000C5
:102C10000040403F000000000006010102020404E1
:102C20000000000000000000482C00080000002008
:102C30003C000000DC1E0008842C00083C00002042
:102C400004040000EC1E000800A24A04000000007A
:102C5000000000000102030406070809000000004C
:102C6000010203040102030406070809020406081E
:102C70000000000000000000000000000000000054
:042C80000000000050
:0400000508000101ED
:00000001FF
